{
  "contractName": "BitMathTest",
  "abi": [
    {
      "inputs": [
        {
          "internalType": "uint256",
          "name": "x",
          "type": "uint256"
        }
      ],
      "name": "mostSignificantBit",
      "outputs": [
        {
          "internalType": "uint8",
          "name": "r",
          "type": "uint8"
        }
      ],
      "stateMutability": "pure",
      "type": "function"
    },
    {
      "inputs": [
        {
          "internalType": "uint256",
          "name": "x",
          "type": "uint256"
        }
      ],
      "name": "getGasCostOfMostSignificantBit",
      "outputs": [
        {
          "internalType": "uint256",
          "name": "",
          "type": "uint256"
        }
      ],
      "stateMutability": "view",
      "type": "function"
    },
    {
      "inputs": [
        {
          "internalType": "uint256",
          "name": "x",
          "type": "uint256"
        }
      ],
      "name": "leastSignificantBit",
      "outputs": [
        {
          "internalType": "uint8",
          "name": "r",
          "type": "uint8"
        }
      ],
      "stateMutability": "pure",
      "type": "function"
    },
    {
      "inputs": [
        {
          "internalType": "uint256",
          "name": "x",
          "type": "uint256"
        }
      ],
      "name": "getGasCostOfLeastSignificantBit",
      "outputs": [
        {
          "internalType": "uint256",
          "name": "",
          "type": "uint256"
        }
      ],
      "stateMutability": "view",
      "type": "function"
    }
  ],
  "bytecode": "0x608060405234801561001057600080fd5b506103f0806100206000396000f3fe608060405234801561001057600080fd5b506004361061004b5760003560e01c806246b777146100505780636b83cf2614610092578063d230d23f146100d4578063e6bcbc6514610119575b600080fd5b61007c6004803603602081101561006657600080fd5b810190808035906020019092919050505061015e565b6040518082815260200191505060405180910390f35b6100be600480360360208110156100a857600080fd5b8101908080359060200190929190505050610179565b6040518082815260200191505060405180910390f35b610100600480360360208110156100ea57600080fd5b8101908080359060200190929190505050610194565b604051808260ff16815260200191505060405180910390f35b6101456004803603602081101561012f57600080fd5b81019080803590602001909291905050506101a6565b604051808260ff16815260200191505060405180910390f35b6000805a905061016d836101b8565b505a8103915050919050565b6000805a905061018883610293565b505a8103915050919050565b600061019f82610293565b9050919050565b60006101b1826101b8565b9050919050565b60008082116101c657600080fd5b70010000000000000000000000000000000082106101ec57608082901c91506080810190505b68010000000000000000821061020a57604082901c91506040810190505b640100000000821061022457602082901c91506020810190505b62010000821061023c57601082901c91506010810190505b610100821061025357600882901c91506008810190505b6010821061026957600482901c91506004810190505b6004821061027f57600282901c91506002810190505b6002821061028e576001810190505b919050565b60008082116102a157600080fd5b60ff905060006fffffffffffffffffffffffffffffffff8016831611156102cd576080810390506102d5565b608082901c91505b600067ffffffffffffffff8016831611156102f5576040810390506102fd565b604082901c91505b600063ffffffff80168316111561031957602081039050610321565b602082901c91505b600061ffff80168316111561033b57601081039050610343565b601082901c91505b600060ff80168316111561035c57600881039050610364565b600882901c91505b6000600f8316111561037b57600481039050610383565b600482901c91505b600060038316111561039a576002810390506103a2565b600282901c91505b60006001831611156103b5576001810390505b91905056fea26469706673582212201296667009e38aa56f2a95946525961cd9b865417807dfcbe4ffc5279aba524664736f6c63430007060033",
  "immutableReferences": {},
  "source": "// SPDX-License-Identifier: UNLICENSED\npragma solidity =0.7.6;\n\nimport '../libraries/BitMath.sol';\n\ncontract BitMathTest {\n    function mostSignificantBit(uint256 x) external pure returns (uint8 r) {\n        return BitMath.mostSignificantBit(x);\n    }\n\n    function getGasCostOfMostSignificantBit(uint256 x) external view returns (uint256) {\n        uint256 gasBefore = gasleft();\n        BitMath.mostSignificantBit(x);\n        return gasBefore - gasleft();\n    }\n\n    function leastSignificantBit(uint256 x) external pure returns (uint8 r) {\n        return BitMath.leastSignificantBit(x);\n    }\n\n    function getGasCostOfLeastSignificantBit(uint256 x) external view returns (uint256) {\n        uint256 gasBefore = gasleft();\n        BitMath.leastSignificantBit(x);\n        return gasBefore - gasleft();\n    }\n}\n",
  "sourcePath": "/Users/admin/Desktop/amm/amm/get_insidefee/contracts/uniswap/test/BitMathTest.sol",
  "compiler": {
    "name": "solc",
    "version": "0.7.6+commit.7338295f.Emscripten.clang"
  },
  "schemaVersion": "3.2.2-next.0",
  "updatedAt": "2021-08-03T06:36:35.165Z",
  "devdoc": {
    "kind": "dev",
    "methods": {},
    "version": 1
  },
  "userdoc": {
    "kind": "user",
    "methods": {},
    "version": 1
  }
}