{
  "contractName": "feeTest2",
  "abi": [
    {
      "inputs": [
        {
          "internalType": "address",
          "name": "_pool",
          "type": "address"
        },
        {
          "internalType": "int24",
          "name": "tickLower",
          "type": "int24"
        },
        {
          "internalType": "int24",
          "name": "tickUpper",
          "type": "int24"
        },
        {
          "internalType": "int24",
          "name": "tickCurrent",
          "type": "int24"
        }
      ],
      "name": "getFeeGrowthInside",
      "outputs": [
        {
          "internalType": "uint256",
          "name": "feeGrowthInside0X128",
          "type": "uint256"
        },
        {
          "internalType": "uint256",
          "name": "feeGrowthInside1X128",
          "type": "uint256"
        }
      ],
      "stateMutability": "view",
      "type": "function"
    }
  ],
  "bytecode": "0x608060405234801561001057600080fd5b50610435806100206000396000f3fe608060405234801561001057600080fd5b506004361061002b5760003560e01c8063b54266e414610030575b600080fd5b6100996004803603608081101561004657600080fd5b81019080803573ffffffffffffffffffffffffffffffffffffffff169060200190929190803560020b9060200190929190803560020b9060200190929190803560020b90602001909291905050506100b6565b604051808381526020018281526020019250505060405180910390f35b60008060008690506000808273ffffffffffffffffffffffffffffffffffffffff1663f30dba93896040518263ffffffff1660e01b8152600401808260020b81526020019150506101006040518083038186803b15801561011657600080fd5b505afa15801561012a573d6000803e3d6000fd5b505050506040513d61010081101561014157600080fd5b810190808051906020019092919080519060200190929190805190602001909291908051906020019092919080519060200190929190805190602001909291908051906020019092919080519060200190929190505050505050509350935050506000808473ffffffffffffffffffffffffffffffffffffffff1663f30dba938a6040518263ffffffff1660e01b8152600401808260020b81526020019150506101006040518083038186803b1580156101fa57600080fd5b505afa15801561020e573d6000803e3d6000fd5b505050506040513d61010081101561022557600080fd5b8101908080519060200190929190805190602001909291908051906020019092919080519060200190929190805190602001909291908051906020019092919080519060200190929190805190602001909291905050505050505093509350505060008573ffffffffffffffffffffffffffffffffffffffff1663f30583996040518163ffffffff1660e01b815260040160206040518083038186803b1580156102ce57600080fd5b505afa1580156102e2573d6000803e3d6000fd5b505050506040513d60208110156102f857600080fd5b8101908080519060200190929190505050905060008673ffffffffffffffffffffffffffffffffffffffff1663461413196040518163ffffffff1660e01b815260040160206040518083038186803b15801561035357600080fd5b505afa158015610367573d6000803e3d6000fd5b505050506040513d602081101561037d57600080fd5b810190808051906020019092919050505090506000808d60020b8c60020b126103ab578791508690506103b6565b878403915086830390505b6000808e60020b8e60020b12156103d2578791508690506103dd565b878603915086850390505b81848703039c5080838603039b5050505050505050505050509450949250505056fea2646970667358221220b88e43b6ac6703a0d3857c1cf78850744a321a281d0222fef700ad4bfcc8783964736f6c63430007060033",
  "immutableReferences": {},
  "source": "// SPDX-License-Identifier: MIT\npragma solidity ^0.7.6;\n\nimport '@uniswap/v3-core/contracts/interfaces/IUniswapV3Pool.sol';\nimport '@uniswap/v3-core/contracts/libraries/Tick.sol';\n\ncontract feeTest2{\n\n    function getFeeGrowthInside(\n        address _pool,\n        int24 tickLower,\n        int24 tickUpper,\n        int24 tickCurrent\n    ) external view returns (uint256 feeGrowthInside0X128, uint256 feeGrowthInside1X128) {\n        IUniswapV3Pool pool = IUniswapV3Pool(_pool);\n        (,,uint256 lowerfeeGrowthOutside0X128, uint256 lowerfeeGrowthOutside1X128,,,,) = pool.ticks(tickLower);\n        (,,uint256 upperfeeGrowthOutside0X128, uint256 upperfeeGrowthOutside1X128,,,,) = pool.ticks(tickUpper);\n\n        uint256 feeGrowthGlobal0X128 = pool.feeGrowthGlobal0X128();\n        uint256 feeGrowthGlobal1X128 = pool.feeGrowthGlobal1X128();\n\n        // calculate fee growth below\n        uint256 feeGrowthBelow0X128;\n        uint256 feeGrowthBelow1X128;\n        if (tickCurrent >= tickLower) {\n            feeGrowthBelow0X128 = lowerfeeGrowthOutside0X128;\n            feeGrowthBelow1X128 = lowerfeeGrowthOutside1X128;\n        } else {\n            feeGrowthBelow0X128 = feeGrowthGlobal0X128 - lowerfeeGrowthOutside0X128;\n            feeGrowthBelow1X128 = feeGrowthGlobal1X128 - lowerfeeGrowthOutside1X128;\n        }\n\n        // calculate fee growth above\n        uint256 feeGrowthAbove0X128;\n        uint256 feeGrowthAbove1X128;\n        if (tickCurrent < tickUpper) {\n            feeGrowthAbove0X128 = upperfeeGrowthOutside0X128;\n            feeGrowthAbove1X128 = upperfeeGrowthOutside1X128;\n        } else {\n            feeGrowthAbove0X128 = feeGrowthGlobal0X128 - upperfeeGrowthOutside0X128;\n            feeGrowthAbove1X128 = feeGrowthGlobal1X128 - upperfeeGrowthOutside1X128;\n        }\n\n        feeGrowthInside0X128 = feeGrowthGlobal0X128 - feeGrowthBelow0X128 - feeGrowthAbove0X128;\n        feeGrowthInside1X128 = feeGrowthGlobal1X128 - feeGrowthBelow1X128 - feeGrowthAbove1X128;\n    }\n}\n",
  "sourcePath": "/Users/admin/Desktop/amm/amm/get_insidefee/contracts/getfee.sol",
  "compiler": {
    "name": "solc",
    "version": "0.7.6+commit.7338295f.Emscripten.clang"
  },
  "schemaVersion": "3.2.2-next.0",
  "updatedAt": "2021-08-04T04:27:23.140Z",
  "devdoc": {
    "kind": "dev",
    "methods": {},
    "version": 1
  },
  "userdoc": {
    "kind": "user",
    "methods": {},
    "version": 1
  }
}