{
  "contractName": "FullMathEchidnaTest",
  "abi": [
    {
      "inputs": [
        {
          "internalType": "uint256",
          "name": "x",
          "type": "uint256"
        },
        {
          "internalType": "uint256",
          "name": "y",
          "type": "uint256"
        },
        {
          "internalType": "uint256",
          "name": "d",
          "type": "uint256"
        }
      ],
      "name": "checkMulDivRounding",
      "outputs": [],
      "stateMutability": "pure",
      "type": "function"
    },
    {
      "inputs": [
        {
          "internalType": "uint256",
          "name": "x",
          "type": "uint256"
        },
        {
          "internalType": "uint256",
          "name": "y",
          "type": "uint256"
        },
        {
          "internalType": "uint256",
          "name": "d",
          "type": "uint256"
        }
      ],
      "name": "checkMulDiv",
      "outputs": [],
      "stateMutability": "pure",
      "type": "function"
    },
    {
      "inputs": [
        {
          "internalType": "uint256",
          "name": "x",
          "type": "uint256"
        },
        {
          "internalType": "uint256",
          "name": "y",
          "type": "uint256"
        },
        {
          "internalType": "uint256",
          "name": "d",
          "type": "uint256"
        }
      ],
      "name": "checkMulDivRoundingUp",
      "outputs": [],
      "stateMutability": "pure",
      "type": "function"
    }
  ],
  "bytecode": "0x608060405234801561001057600080fd5b506103fc806100206000396000f3fe608060405234801561001057600080fd5b50600436106100415760003560e01c8063695363a31461004657806379eee48714610088578063bf08c391146100ca575b600080fd5b6100866004803603606081101561005c57600080fd5b8101908080359060200190929190803590602001909291908035906020019092919050505061010c565b005b6100c86004803603606081101561009e57600080fd5b8101908080359060200190929190803590602001909291908035906020019092919050505061016c565b005b61010a600480360360608110156100e057600080fd5b810190808035906020019092919080359060200190929190803590602001909291905050506101fd565b005b6000811161011957600080fd5b600061012684848461028e565b905060006101358585856102ec565b90506000838061014157fe5b858709111561015b5760018183031461015657fe5b610165565b80821461016457fe5b5b5050505050565b6000811161017957600080fd5b600061018684848461028e565b905060008414806101975750600083145b156101ac57600081146101a657fe5b506101f8565b60006101b98284866102ec565b905060006101c88385886102ec565b9050858210156101d457fe5b848110156101de57fe5b83868303106101e957fe5b83858203106101f457fe5b5050505b505050565b6000811161020a57600080fd5b60006102178484846102ec565b905060008414806102285750600083145b1561023d576000811461023757fe5b50610289565b600061024a8284866102ec565b905060006102598385886102ec565b90508582111561026557fe5b8481111561026f57fe5b838287031061027a57fe5b838186031061028557fe5b5050505b505050565b600061029b8484846102ec565b9050600082806102a757fe5b84860911156102e5577fffffffffffffffffffffffffffffffffffffffffffffffffffffffffffffffff81106102dc57600080fd5b80806001019150505b9392505050565b600080600080198587098587029250828110838203039150506000811415610327576000841161031b57600080fd5b838204925050506103bf565b80841161033357600080fd5b600084868809905082811182039150808303925060008586600003169050808604955080840493506001818260000304019050808302841793506000600287600302189050808702600203810290508087026002038102905080870260020381029050808702600203810290508087026002038102905080870260020381029050808502955050505050505b939250505056fea264697066735822122087d60eeb1296a8ef3b1ab31e7f3842ad2ad49aac11a70f437dc6c3c5b237e64464736f6c63430007060033",
  "immutableReferences": {},
  "source": "// SPDX-License-Identifier: UNLICENSED\npragma solidity =0.7.6;\n\nimport '../libraries/FullMath.sol';\n\ncontract FullMathEchidnaTest {\n    function checkMulDivRounding(\n        uint256 x,\n        uint256 y,\n        uint256 d\n    ) external pure {\n        require(d > 0);\n\n        uint256 ceiled = FullMath.mulDivRoundingUp(x, y, d);\n        uint256 floored = FullMath.mulDiv(x, y, d);\n\n        if (mulmod(x, y, d) > 0) {\n            assert(ceiled - floored == 1);\n        } else {\n            assert(ceiled == floored);\n        }\n    }\n\n    function checkMulDiv(\n        uint256 x,\n        uint256 y,\n        uint256 d\n    ) external pure {\n        require(d > 0);\n        uint256 z = FullMath.mulDiv(x, y, d);\n        if (x == 0 || y == 0) {\n            assert(z == 0);\n            return;\n        }\n\n        // recompute x and y via mulDiv of the result of floor(x*y/d), should always be less than original inputs by < d\n        uint256 x2 = FullMath.mulDiv(z, d, y);\n        uint256 y2 = FullMath.mulDiv(z, d, x);\n        assert(x2 <= x);\n        assert(y2 <= y);\n\n        assert(x - x2 < d);\n        assert(y - y2 < d);\n    }\n\n    function checkMulDivRoundingUp(\n        uint256 x,\n        uint256 y,\n        uint256 d\n    ) external pure {\n        require(d > 0);\n        uint256 z = FullMath.mulDivRoundingUp(x, y, d);\n        if (x == 0 || y == 0) {\n            assert(z == 0);\n            return;\n        }\n\n        // recompute x and y via mulDiv of the result of floor(x*y/d), should always be less than original inputs by < d\n        uint256 x2 = FullMath.mulDiv(z, d, y);\n        uint256 y2 = FullMath.mulDiv(z, d, x);\n        assert(x2 >= x);\n        assert(y2 >= y);\n\n        assert(x2 - x < d);\n        assert(y2 - y < d);\n    }\n}\n",
  "sourcePath": "/Users/admin/Desktop/amm/amm/get_insidefee/contracts/uniswap/test/FullMathEchidnaTest.sol",
  "compiler": {
    "name": "solc",
    "version": "0.7.6+commit.7338295f.Emscripten.clang"
  },
  "schemaVersion": "3.2.2-next.0",
  "updatedAt": "2021-08-03T06:36:35.168Z",
  "devdoc": {
    "kind": "dev",
    "methods": {},
    "version": 1
  },
  "userdoc": {
    "kind": "user",
    "methods": {},
    "version": 1
  }
}