{
  "contractName": "LowGasSafeMathEchidnaTest",
  "abi": [
    {
      "inputs": [
        {
          "internalType": "uint256",
          "name": "x",
          "type": "uint256"
        },
        {
          "internalType": "uint256",
          "name": "y",
          "type": "uint256"
        }
      ],
      "name": "checkAdd",
      "outputs": [],
      "stateMutability": "pure",
      "type": "function"
    },
    {
      "inputs": [
        {
          "internalType": "uint256",
          "name": "x",
          "type": "uint256"
        },
        {
          "internalType": "uint256",
          "name": "y",
          "type": "uint256"
        }
      ],
      "name": "checkSub",
      "outputs": [],
      "stateMutability": "pure",
      "type": "function"
    },
    {
      "inputs": [
        {
          "internalType": "uint256",
          "name": "x",
          "type": "uint256"
        },
        {
          "internalType": "uint256",
          "name": "y",
          "type": "uint256"
        }
      ],
      "name": "checkMul",
      "outputs": [],
      "stateMutability": "pure",
      "type": "function"
    },
    {
      "inputs": [
        {
          "internalType": "int256",
          "name": "x",
          "type": "int256"
        },
        {
          "internalType": "int256",
          "name": "y",
          "type": "int256"
        }
      ],
      "name": "checkAddi",
      "outputs": [],
      "stateMutability": "pure",
      "type": "function"
    },
    {
      "inputs": [
        {
          "internalType": "int256",
          "name": "x",
          "type": "int256"
        },
        {
          "internalType": "int256",
          "name": "y",
          "type": "int256"
        }
      ],
      "name": "checkSubi",
      "outputs": [],
      "stateMutability": "pure",
      "type": "function"
    }
  ],
  "bytecode": "0x608060405234801561001057600080fd5b50610368806100206000396000f3fe608060405234801561001057600080fd5b50600436106100575760003560e01c80630f9350001461005c5780630fe48c5c146100945780636d886fae146100cc5780639239e77714610104578063bd78b20d1461013c575b600080fd5b6100926004803603604081101561007257600080fd5b810190808035906020019092919080359060200190929190505050610174565b005b6100ca600480360360408110156100aa57600080fd5b8101908080359060200190929190803590602001909291905050506101a8565b005b610102600480360360408110156100e257600080fd5b8101908080359060200190929190803590602001909291905050506101f2565b005b61013a6004803603604081101561011a57600080fd5b81019080803590602001909291908035906020019092919050505061021a565b005b6101726004803603604081101561015257600080fd5b810190808035906020019092919080359060200190929190505050610253565b005b6000610180838361028c565b9050818301811461018d57fe5b82811015801561019d5750818110155b6101a357fe5b505050565b60006101b483836102a6565b905081830281146101c157fe5b60008314806101d05750600082145b806101e757508281101580156101e65750818110155b5b6101ed57fe5b505050565b60006101fe83836102d2565b9050818303811461020b57fe5b8281111561021557fe5b505050565b600061022683836102ec565b9050818301811461023357fe5b600082126102445782811215610248565b8281125b61024e57fe5b505050565b600061025f838361030f565b9050818303811461026c57fe5b6000821261027d5782811315610281565b8281135b61028757fe5b505050565b60008282840191508110156102a057600080fd5b92915050565b6000808314806102c357508183838502925082816102c057fe5b04145b6102cc57600080fd5b92915050565b60008282840391508111156102e657600080fd5b92915050565b600080821215151583838501925082121515151461030957600080fd5b92915050565b600080821215151583838503925082131515151461032c57600080fd5b9291505056fea2646970667358221220d7099d67a94b9cdb7c896354c3cd8b3e9bd04741ed8d28d2329d3388e83aebde64736f6c63430007060033",
  "immutableReferences": {},
  "source": "// SPDX-License-Identifier: UNLICENSED\npragma solidity =0.7.6;\n\nimport '../libraries/LowGasSafeMath.sol';\n\ncontract LowGasSafeMathEchidnaTest {\n    function checkAdd(uint256 x, uint256 y) external pure {\n        uint256 z = LowGasSafeMath.add(x, y);\n        assert(z == x + y);\n        assert(z >= x && z >= y);\n    }\n\n    function checkSub(uint256 x, uint256 y) external pure {\n        uint256 z = LowGasSafeMath.sub(x, y);\n        assert(z == x - y);\n        assert(z <= x);\n    }\n\n    function checkMul(uint256 x, uint256 y) external pure {\n        uint256 z = LowGasSafeMath.mul(x, y);\n        assert(z == x * y);\n        assert(x == 0 || y == 0 || (z >= x && z >= y));\n    }\n\n    function checkAddi(int256 x, int256 y) external pure {\n        int256 z = LowGasSafeMath.add(x, y);\n        assert(z == x + y);\n        assert(y < 0 ? z < x : z >= x);\n    }\n\n    function checkSubi(int256 x, int256 y) external pure {\n        int256 z = LowGasSafeMath.sub(x, y);\n        assert(z == x - y);\n        assert(y < 0 ? z > x : z <= x);\n    }\n}\n",
  "sourcePath": "/Users/admin/Desktop/amm/amm/get_insidefee/contracts/uniswap/test/LowGasSafeMathEchidnaTest.sol",
  "compiler": {
    "name": "solc",
    "version": "0.7.6+commit.7338295f.Emscripten.clang"
  },
  "schemaVersion": "3.2.2-next.0",
  "updatedAt": "2021-08-03T06:36:35.175Z",
  "devdoc": {
    "kind": "dev",
    "methods": {},
    "version": 1
  },
  "userdoc": {
    "kind": "user",
    "methods": {},
    "version": 1
  }
}