{
  "contractName": "NoDelegateCallTest",
  "abi": [
    {
      "inputs": [],
      "name": "canBeDelegateCalled",
      "outputs": [
        {
          "internalType": "uint256",
          "name": "",
          "type": "uint256"
        }
      ],
      "stateMutability": "view",
      "type": "function"
    },
    {
      "inputs": [],
      "name": "cannotBeDelegateCalled",
      "outputs": [
        {
          "internalType": "uint256",
          "name": "",
          "type": "uint256"
        }
      ],
      "stateMutability": "view",
      "type": "function"
    },
    {
      "inputs": [],
      "name": "getGasCostOfCanBeDelegateCalled",
      "outputs": [
        {
          "internalType": "uint256",
          "name": "",
          "type": "uint256"
        }
      ],
      "stateMutability": "view",
      "type": "function"
    },
    {
      "inputs": [],
      "name": "getGasCostOfCannotBeDelegateCalled",
      "outputs": [
        {
          "internalType": "uint256",
          "name": "",
          "type": "uint256"
        }
      ],
      "stateMutability": "view",
      "type": "function"
    },
    {
      "inputs": [],
      "name": "callsIntoNoDelegateCallFunction",
      "outputs": [],
      "stateMutability": "view",
      "type": "function"
    }
  ],
  "bytecode": "0x60a060405234801561001057600080fd5b503073ffffffffffffffffffffffffffffffffffffffff1660808173ffffffffffffffffffffffffffffffffffffffff1660601b8152505060805160601c6101de6100656000398061014652506101de6000f3fe608060405234801561001057600080fd5b50600436106100575760003560e01c80633045a6e01461005c5780633c7c8dd01461007a578063423ecb051461009857806364270164146100b6578063f45f416e146100c0575b600080fd5b6100646100de565b6040518082815260200191505060405180910390f35b6100826100f6565b6040518082815260200191505060405180910390f35b6100a061010e565b6040518082815260200191505060405180910390f35b6100be610128565b005b6100c8610132565b6040518082815260200191505060405180910390f35b6000805a90506100ec610132565b505a810391505090565b6000805a905061010461010e565b505a810391505090565b6000610118610144565b6005428161012257fe5b04905090565b61013061019e565b565b60006005428161013e57fe5b04905090565b7f000000000000000000000000000000000000000000000000000000000000000073ffffffffffffffffffffffffffffffffffffffff163073ffffffffffffffffffffffffffffffffffffffff161461019c57600080fd5b565b6101a6610144565b56fea2646970667358221220ae52826e7dcdd82d9dc1d576b9df41767fb322313a1cd089ddd6f7067634401164736f6c63430007060033",
  "immutableReferences": {
    "149": [
      {
        "length": 32,
        "start": 326
      }
    ]
  },
  "source": "// SPDX-License-Identifier: UNLICENSED\npragma solidity =0.7.6;\n\nimport '../NoDelegateCall.sol';\n\ncontract NoDelegateCallTest is NoDelegateCall {\n    function canBeDelegateCalled() public view returns (uint256) {\n        return block.timestamp / 5;\n    }\n\n    function cannotBeDelegateCalled() public view noDelegateCall returns (uint256) {\n        return block.timestamp / 5;\n    }\n\n    function getGasCostOfCanBeDelegateCalled() external view returns (uint256) {\n        uint256 gasBefore = gasleft();\n        canBeDelegateCalled();\n        return gasBefore - gasleft();\n    }\n\n    function getGasCostOfCannotBeDelegateCalled() external view returns (uint256) {\n        uint256 gasBefore = gasleft();\n        cannotBeDelegateCalled();\n        return gasBefore - gasleft();\n    }\n\n    function callsIntoNoDelegateCallFunction() external view {\n        noDelegateCallPrivate();\n    }\n\n    function noDelegateCallPrivate() private view noDelegateCall {}\n}\n",
  "sourcePath": "/Users/admin/Desktop/amm/amm/get_insidefee/contracts/uniswap/test/NoDelegateCallTest.sol",
  "compiler": {
    "name": "solc",
    "version": "0.7.6+commit.7338295f.Emscripten.clang"
  },
  "schemaVersion": "3.2.2-next.0",
  "updatedAt": "2021-08-03T06:36:35.185Z",
  "devdoc": {
    "kind": "dev",
    "methods": {},
    "version": 1
  },
  "userdoc": {
    "kind": "user",
    "methods": {},
    "version": 1
  }
}