{
  "contractName": "TestUniswapV3Callee",
  "abi": [
    {
      "anonymous": false,
      "inputs": [
        {
          "indexed": false,
          "internalType": "uint256",
          "name": "fee0",
          "type": "uint256"
        },
        {
          "indexed": false,
          "internalType": "uint256",
          "name": "fee1",
          "type": "uint256"
        }
      ],
      "name": "FlashCallback",
      "type": "event"
    },
    {
      "anonymous": false,
      "inputs": [
        {
          "indexed": false,
          "internalType": "uint256",
          "name": "amount0Owed",
          "type": "uint256"
        },
        {
          "indexed": false,
          "internalType": "uint256",
          "name": "amount1Owed",
          "type": "uint256"
        }
      ],
      "name": "MintCallback",
      "type": "event"
    },
    {
      "anonymous": false,
      "inputs": [
        {
          "indexed": false,
          "internalType": "int256",
          "name": "amount0Delta",
          "type": "int256"
        },
        {
          "indexed": false,
          "internalType": "int256",
          "name": "amount1Delta",
          "type": "int256"
        }
      ],
      "name": "SwapCallback",
      "type": "event"
    },
    {
      "inputs": [
        {
          "internalType": "address",
          "name": "pool",
          "type": "address"
        },
        {
          "internalType": "uint256",
          "name": "amount0In",
          "type": "uint256"
        },
        {
          "internalType": "address",
          "name": "recipient",
          "type": "address"
        },
        {
          "internalType": "uint160",
          "name": "sqrtPriceLimitX96",
          "type": "uint160"
        }
      ],
      "name": "swapExact0For1",
      "outputs": [],
      "stateMutability": "nonpayable",
      "type": "function"
    },
    {
      "inputs": [
        {
          "internalType": "address",
          "name": "pool",
          "type": "address"
        },
        {
          "internalType": "uint256",
          "name": "amount1Out",
          "type": "uint256"
        },
        {
          "internalType": "address",
          "name": "recipient",
          "type": "address"
        },
        {
          "internalType": "uint160",
          "name": "sqrtPriceLimitX96",
          "type": "uint160"
        }
      ],
      "name": "swap0ForExact1",
      "outputs": [],
      "stateMutability": "nonpayable",
      "type": "function"
    },
    {
      "inputs": [
        {
          "internalType": "address",
          "name": "pool",
          "type": "address"
        },
        {
          "internalType": "uint256",
          "name": "amount1In",
          "type": "uint256"
        },
        {
          "internalType": "address",
          "name": "recipient",
          "type": "address"
        },
        {
          "internalType": "uint160",
          "name": "sqrtPriceLimitX96",
          "type": "uint160"
        }
      ],
      "name": "swapExact1For0",
      "outputs": [],
      "stateMutability": "nonpayable",
      "type": "function"
    },
    {
      "inputs": [
        {
          "internalType": "address",
          "name": "pool",
          "type": "address"
        },
        {
          "internalType": "uint256",
          "name": "amount0Out",
          "type": "uint256"
        },
        {
          "internalType": "address",
          "name": "recipient",
          "type": "address"
        },
        {
          "internalType": "uint160",
          "name": "sqrtPriceLimitX96",
          "type": "uint160"
        }
      ],
      "name": "swap1ForExact0",
      "outputs": [],
      "stateMutability": "nonpayable",
      "type": "function"
    },
    {
      "inputs": [
        {
          "internalType": "address",
          "name": "pool",
          "type": "address"
        },
        {
          "internalType": "uint160",
          "name": "sqrtPriceX96",
          "type": "uint160"
        },
        {
          "internalType": "address",
          "name": "recipient",
          "type": "address"
        }
      ],
      "name": "swapToLowerSqrtPrice",
      "outputs": [],
      "stateMutability": "nonpayable",
      "type": "function"
    },
    {
      "inputs": [
        {
          "internalType": "address",
          "name": "pool",
          "type": "address"
        },
        {
          "internalType": "uint160",
          "name": "sqrtPriceX96",
          "type": "uint160"
        },
        {
          "internalType": "address",
          "name": "recipient",
          "type": "address"
        }
      ],
      "name": "swapToHigherSqrtPrice",
      "outputs": [],
      "stateMutability": "nonpayable",
      "type": "function"
    },
    {
      "inputs": [
        {
          "internalType": "int256",
          "name": "amount0Delta",
          "type": "int256"
        },
        {
          "internalType": "int256",
          "name": "amount1Delta",
          "type": "int256"
        },
        {
          "internalType": "bytes",
          "name": "data",
          "type": "bytes"
        }
      ],
      "name": "uniswapV3SwapCallback",
      "outputs": [],
      "stateMutability": "nonpayable",
      "type": "function"
    },
    {
      "inputs": [
        {
          "internalType": "address",
          "name": "pool",
          "type": "address"
        },
        {
          "internalType": "address",
          "name": "recipient",
          "type": "address"
        },
        {
          "internalType": "int24",
          "name": "tickLower",
          "type": "int24"
        },
        {
          "internalType": "int24",
          "name": "tickUpper",
          "type": "int24"
        },
        {
          "internalType": "uint128",
          "name": "amount",
          "type": "uint128"
        }
      ],
      "name": "mint",
      "outputs": [],
      "stateMutability": "nonpayable",
      "type": "function"
    },
    {
      "inputs": [
        {
          "internalType": "uint256",
          "name": "amount0Owed",
          "type": "uint256"
        },
        {
          "internalType": "uint256",
          "name": "amount1Owed",
          "type": "uint256"
        },
        {
          "internalType": "bytes",
          "name": "data",
          "type": "bytes"
        }
      ],
      "name": "uniswapV3MintCallback",
      "outputs": [],
      "stateMutability": "nonpayable",
      "type": "function"
    },
    {
      "inputs": [
        {
          "internalType": "address",
          "name": "pool",
          "type": "address"
        },
        {
          "internalType": "address",
          "name": "recipient",
          "type": "address"
        },
        {
          "internalType": "uint256",
          "name": "amount0",
          "type": "uint256"
        },
        {
          "internalType": "uint256",
          "name": "amount1",
          "type": "uint256"
        },
        {
          "internalType": "uint256",
          "name": "pay0",
          "type": "uint256"
        },
        {
          "internalType": "uint256",
          "name": "pay1",
          "type": "uint256"
        }
      ],
      "name": "flash",
      "outputs": [],
      "stateMutability": "nonpayable",
      "type": "function"
    },
    {
      "inputs": [
        {
          "internalType": "uint256",
          "name": "fee0",
          "type": "uint256"
        },
        {
          "internalType": "uint256",
          "name": "fee1",
          "type": "uint256"
        },
        {
          "internalType": "bytes",
          "name": "data",
          "type": "bytes"
        }
      ],
      "name": "uniswapV3FlashCallback",
      "outputs": [],
      "stateMutability": "nonpayable",
      "type": "function"
    }
  ],
  "bytecode": "0x608060405234801561001057600080fd5b50611d4c806100206000396000f3fe608060405234801561001057600080fd5b50600436106100a95760003560e01c8063bac7bf7811610071578063bac7bf781461036a578063d3487997146103f8578063e2be910914610485578063e9cbafb014610513578063f603482c146105a0578063fa461e331461062e576100a9565b8063034b0f8f146100ae5780632ec20bf91461013a5780636dfc0ddb146101be5780637b4f53271461024c5780639e77b805146102e6575b600080fd5b610138600480360360c08110156100c457600080fd5b81019080803573ffffffffffffffffffffffffffffffffffffffff169060200190929190803573ffffffffffffffffffffffffffffffffffffffff169060200190929190803590602001909291908035906020019092919080359060200190929190803590602001909291905050506106bb565b005b6101bc6004803603606081101561015057600080fd5b81019080803573ffffffffffffffffffffffffffffffffffffffff169060200190929190803573ffffffffffffffffffffffffffffffffffffffff169060200190929190803573ffffffffffffffffffffffffffffffffffffffff169060200190929190505050610806565b005b61024a600480360360808110156101d457600080fd5b81019080803573ffffffffffffffffffffffffffffffffffffffff16906020019092919080359060200190929190803573ffffffffffffffffffffffffffffffffffffffff169060200190929190803573ffffffffffffffffffffffffffffffffffffffff1690602001909291905050506109ad565b005b6102e4600480360360a081101561026257600080fd5b81019080803573ffffffffffffffffffffffffffffffffffffffff169060200190929190803573ffffffffffffffffffffffffffffffffffffffff169060200190929190803560020b9060200190929190803560020b906020019092919080356fffffffffffffffffffffffffffffffff169060200190929190505050610b3d565b005b610368600480360360608110156102fc57600080fd5b81019080803573ffffffffffffffffffffffffffffffffffffffff169060200190929190803573ffffffffffffffffffffffffffffffffffffffff169060200190929190803573ffffffffffffffffffffffffffffffffffffffff169060200190929190505050610cc5565b005b6103f66004803603608081101561038057600080fd5b81019080803573ffffffffffffffffffffffffffffffffffffffff16906020019092919080359060200190929190803573ffffffffffffffffffffffffffffffffffffffff169060200190929190803573ffffffffffffffffffffffffffffffffffffffff169060200190929190505050610e6c565b005b6104836004803603606081101561040e57600080fd5b8101908080359060200190929190803590602001909291908035906020019064010000000081111561043f57600080fd5b82018360208201111561045157600080fd5b8035906020019184600183028401116401000000008311171561047357600080fd5b9091929391929390505050610fff565b005b6105116004803603608081101561049b57600080fd5b81019080803573ffffffffffffffffffffffffffffffffffffffff16906020019092919080359060200190929190803573ffffffffffffffffffffffffffffffffffffffff169060200190929190803573ffffffffffffffffffffffffffffffffffffffff16906020019092919050505061132a565b005b61059e6004803603606081101561052957600080fd5b8101908080359060200190929190803590602001909291908035906020019064010000000081111561055a57600080fd5b82018360208201111561056c57600080fd5b8035906020019184600183028401116401000000008311171561058e57600080fd5b90919293919293905050506114ba565b005b61062c600480360360808110156105b657600080fd5b81019080803573ffffffffffffffffffffffffffffffffffffffff16906020019092919080359060200190929190803573ffffffffffffffffffffffffffffffffffffffff169060200190929190803573ffffffffffffffffffffffffffffffffffffffff169060200190929190505050611802565b005b6106b96004803603606081101561064457600080fd5b8101908080359060200190929190803590602001909291908035906020019064010000000081111561067557600080fd5b82018360208201111561068757600080fd5b803590602001918460018302840111640100000000831117156106a957600080fd5b9091929391929390505050611995565b005b8573ffffffffffffffffffffffffffffffffffffffff1663490e6cbc868686338787604051602001808473ffffffffffffffffffffffffffffffffffffffff16815260200183815260200182815260200193505050506040516020818303038152906040526040518563ffffffff1660e01b8152600401808573ffffffffffffffffffffffffffffffffffffffff16815260200184815260200183815260200180602001828103825283818151815260200191508051906020019080838360005b8381101561079757808201518184015260208101905061077c565b50505050905090810190601f1680156107c45780820380516001836020036101000a031916815260200191505b5095505050505050600060405180830381600087803b1580156107e657600080fd5b505af11580156107fa573d6000803e3d6000fd5b50505050505050505050565b8273ffffffffffffffffffffffffffffffffffffffff1663128acb088260017f7fffffffffffffffffffffffffffffffffffffffffffffffffffffffffffffff8633604051602001808273ffffffffffffffffffffffffffffffffffffffff1681526020019150506040516020818303038152906040526040518663ffffffff1660e01b8152600401808673ffffffffffffffffffffffffffffffffffffffff16815260200185151581526020018481526020018373ffffffffffffffffffffffffffffffffffffffff16815260200180602001828103825283818151815260200191508051906020019080838360005b838110156109125780820151818401526020810190506108f7565b50505050905090810190601f16801561093f5780820380516001836020036101000a031916815260200191505b5096505050505050506040805180830381600087803b15801561096157600080fd5b505af1158015610975573d6000803e3d6000fd5b505050506040513d604081101561098b57600080fd5b8101908080519060200190929190805190602001909291905050505050505050565b8373ffffffffffffffffffffffffffffffffffffffff1663128acb088360016109d587611ce0565b8533604051602001808273ffffffffffffffffffffffffffffffffffffffff1681526020019150506040516020818303038152906040526040518663ffffffff1660e01b8152600401808673ffffffffffffffffffffffffffffffffffffffff16815260200185151581526020018481526020018373ffffffffffffffffffffffffffffffffffffffff16815260200180602001828103825283818151815260200191508051906020019080838360005b83811015610aa1578082015181840152602081019050610a86565b50505050905090810190601f168015610ace5780820380516001836020036101000a031916815260200191505b5096505050505050506040805180830381600087803b158015610af057600080fd5b505af1158015610b04573d6000803e3d6000fd5b505050506040513d6040811015610b1a57600080fd5b810190808051906020019092919080519060200190929190505050505050505050565b8473ffffffffffffffffffffffffffffffffffffffff16633c8a7d8d8585858533604051602001808273ffffffffffffffffffffffffffffffffffffffff1681526020019150506040516020818303038152906040526040518663ffffffff1660e01b8152600401808673ffffffffffffffffffffffffffffffffffffffff1681526020018560020b81526020018460020b8152602001836fffffffffffffffffffffffffffffffff16815260200180602001828103825283818151815260200191508051906020019080838360005b83811015610c28578082015181840152602081019050610c0d565b50505050905090810190601f168015610c555780820380516001836020036101000a031916815260200191505b5096505050505050506040805180830381600087803b158015610c7757600080fd5b505af1158015610c8b573d6000803e3d6000fd5b505050506040513d6040811015610ca157600080fd5b81019080805190602001909291908051906020019092919050505050505050505050565b8273ffffffffffffffffffffffffffffffffffffffff1663128acb088260007f7fffffffffffffffffffffffffffffffffffffffffffffffffffffffffffffff8633604051602001808273ffffffffffffffffffffffffffffffffffffffff1681526020019150506040516020818303038152906040526040518663ffffffff1660e01b8152600401808673ffffffffffffffffffffffffffffffffffffffff16815260200185151581526020018481526020018373ffffffffffffffffffffffffffffffffffffffff16815260200180602001828103825283818151815260200191508051906020019080838360005b83811015610dd1578082015181840152602081019050610db6565b50505050905090810190601f168015610dfe5780820380516001836020036101000a031916815260200191505b5096505050505050506040805180830381600087803b158015610e2057600080fd5b505af1158015610e34573d6000803e3d6000fd5b505050506040513d6040811015610e4a57600080fd5b8101908080519060200190929190805190602001909291905050505050505050565b8373ffffffffffffffffffffffffffffffffffffffff1663128acb08836001610e9487611ce0565b6000038533604051602001808273ffffffffffffffffffffffffffffffffffffffff1681526020019150506040516020818303038152906040526040518663ffffffff1660e01b8152600401808673ffffffffffffffffffffffffffffffffffffffff16815260200185151581526020018481526020018373ffffffffffffffffffffffffffffffffffffffff16815260200180602001828103825283818151815260200191508051906020019080838360005b83811015610f63578082015181840152602081019050610f48565b50505050905090810190601f168015610f905780820380516001836020036101000a031916815260200191505b5096505050505050506040805180830381600087803b158015610fb257600080fd5b505af1158015610fc6573d6000803e3d6000fd5b505050506040513d6040811015610fdc57600080fd5b810190808051906020019092919080519060200190929190505050505050505050565b60008282602081101561101157600080fd5b81019080803573ffffffffffffffffffffffffffffffffffffffff16906020019092919050505090507fa0968be00566083701c9ef671c169d7fb05ac8907de4ca17185de74ccbb694d48585604051808381526020018281526020019250505060405180910390a160008511156111ce573373ffffffffffffffffffffffffffffffffffffffff16630dfe16816040518163ffffffff1660e01b815260040160206040518083038186803b1580156110c857600080fd5b505afa1580156110dc573d6000803e3d6000fd5b505050506040513d60208110156110f257600080fd5b810190808051906020019092919050505073ffffffffffffffffffffffffffffffffffffffff166323b872dd8233886040518463ffffffff1660e01b8152600401808473ffffffffffffffffffffffffffffffffffffffff1681526020018373ffffffffffffffffffffffffffffffffffffffff1681526020018281526020019350505050602060405180830381600087803b15801561119157600080fd5b505af11580156111a5573d6000803e3d6000fd5b505050506040513d60208110156111bb57600080fd5b8101908080519060200190929190505050505b6000841115611323573373ffffffffffffffffffffffffffffffffffffffff1663d21220a76040518163ffffffff1660e01b815260040160206040518083038186803b15801561121d57600080fd5b505afa158015611231573d6000803e3d6000fd5b505050506040513d602081101561124757600080fd5b810190808051906020019092919050505073ffffffffffffffffffffffffffffffffffffffff166323b872dd8233876040518463ffffffff1660e01b8152600401808473ffffffffffffffffffffffffffffffffffffffff1681526020018373ffffffffffffffffffffffffffffffffffffffff1681526020018281526020019350505050602060405180830381600087803b1580156112e657600080fd5b505af11580156112fa573d6000803e3d6000fd5b505050506040513d602081101561131057600080fd5b8101908080519060200190929190505050505b5050505050565b8373ffffffffffffffffffffffffffffffffffffffff1663128acb0883600061135287611ce0565b8533604051602001808273ffffffffffffffffffffffffffffffffffffffff1681526020019150506040516020818303038152906040526040518663ffffffff1660e01b8152600401808673ffffffffffffffffffffffffffffffffffffffff16815260200185151581526020018481526020018373ffffffffffffffffffffffffffffffffffffffff16815260200180602001828103825283818151815260200191508051906020019080838360005b8381101561141e578082015181840152602081019050611403565b50505050905090810190601f16801561144b5780820380516001836020036101000a031916815260200191505b5096505050505050506040805180830381600087803b15801561146d57600080fd5b505af1158015611481573d6000803e3d6000fd5b505050506040513d604081101561149757600080fd5b810190808051906020019092919080519060200190929190505050505050505050565b7f2b0391b4fa408cfe47abd1977d72985695b2e5ebd3175f55be25f2c68c5df21b8484604051808381526020018281526020019250505060405180910390a160008060008484606081101561150e57600080fd5b81019080803573ffffffffffffffffffffffffffffffffffffffff169060200190929190803590602001909291908035906020019092919050505092509250925060008211156116a4573373ffffffffffffffffffffffffffffffffffffffff16630dfe16816040518163ffffffff1660e01b815260040160206040518083038186803b15801561159e57600080fd5b505afa1580156115b2573d6000803e3d6000fd5b505050506040513d60208110156115c857600080fd5b810190808051906020019092919050505073ffffffffffffffffffffffffffffffffffffffff166323b872dd8433856040518463ffffffff1660e01b8152600401808473ffffffffffffffffffffffffffffffffffffffff1681526020018373ffffffffffffffffffffffffffffffffffffffff1681526020018281526020019350505050602060405180830381600087803b15801561166757600080fd5b505af115801561167b573d6000803e3d6000fd5b505050506040513d602081101561169157600080fd5b8101908080519060200190929190505050505b60008111156117f9573373ffffffffffffffffffffffffffffffffffffffff1663d21220a76040518163ffffffff1660e01b815260040160206040518083038186803b1580156116f357600080fd5b505afa158015611707573d6000803e3d6000fd5b505050506040513d602081101561171d57600080fd5b810190808051906020019092919050505073ffffffffffffffffffffffffffffffffffffffff166323b872dd8433846040518463ffffffff1660e01b8152600401808473ffffffffffffffffffffffffffffffffffffffff1681526020018373ffffffffffffffffffffffffffffffffffffffff1681526020018281526020019350505050602060405180830381600087803b1580156117bc57600080fd5b505af11580156117d0573d6000803e3d6000fd5b505050506040513d60208110156117e657600080fd5b8101908080519060200190929190505050505b50505050505050565b8373ffffffffffffffffffffffffffffffffffffffff1663128acb0883600061182a87611ce0565b6000038533604051602001808273ffffffffffffffffffffffffffffffffffffffff1681526020019150506040516020818303038152906040526040518663ffffffff1660e01b8152600401808673ffffffffffffffffffffffffffffffffffffffff16815260200185151581526020018481526020018373ffffffffffffffffffffffffffffffffffffffff16815260200180602001828103825283818151815260200191508051906020019080838360005b838110156118f95780820151818401526020810190506118de565b50505050905090810190601f1680156119265780820380516001836020036101000a031916815260200191505b5096505050505050506040805180830381600087803b15801561194857600080fd5b505af115801561195c573d6000803e3d6000fd5b505050506040513d604081101561197257600080fd5b810190808051906020019092919080519060200190929190505050505050505050565b6000828260208110156119a757600080fd5b81019080803573ffffffffffffffffffffffffffffffffffffffff16906020019092919050505090507fd48241df4a75e663b29e55f9506b31f77ed0f48cfe7e7612d1163144995dc1ca8585604051808381526020018281526020019250505060405180910390a16000851315611b68573373ffffffffffffffffffffffffffffffffffffffff16630dfe16816040518163ffffffff1660e01b815260040160206040518083038186803b158015611a5e57600080fd5b505afa158015611a72573d6000803e3d6000fd5b505050506040513d6020811015611a8857600080fd5b810190808051906020019092919050505073ffffffffffffffffffffffffffffffffffffffff166323b872dd8233886040518463ffffffff1660e01b8152600401808473ffffffffffffffffffffffffffffffffffffffff1681526020018373ffffffffffffffffffffffffffffffffffffffff1681526020018281526020019350505050602060405180830381600087803b158015611b2757600080fd5b505af1158015611b3b573d6000803e3d6000fd5b505050506040513d6020811015611b5157600080fd5b810190808051906020019092919050505050611cd9565b6000841315611cc1573373ffffffffffffffffffffffffffffffffffffffff1663d21220a76040518163ffffffff1660e01b815260040160206040518083038186803b158015611bb757600080fd5b505afa158015611bcb573d6000803e3d6000fd5b505050506040513d6020811015611be157600080fd5b810190808051906020019092919050505073ffffffffffffffffffffffffffffffffffffffff166323b872dd8233876040518463ffffffff1660e01b8152600401808473ffffffffffffffffffffffffffffffffffffffff1681526020018373ffffffffffffffffffffffffffffffffffffffff1681526020018281526020019350505050602060405180830381600087803b158015611c8057600080fd5b505af1158015611c94573d6000803e3d6000fd5b505050506040513d6020811015611caa57600080fd5b810190808051906020019092919050505050611cd8565b600085148015611cd15750600084145b611cd757fe5b5b5b5050505050565b60007f80000000000000000000000000000000000000000000000000000000000000008210611d0e57600080fd5b81905091905056fea26469706673582212209a8e1f56eb098d4bd47a3331a67598e62af93bd70b927cbeab018f31630f59b764736f6c63430007060033",
  "immutableReferences": {},
  "source": "// SPDX-License-Identifier: UNLICENSED\npragma solidity =0.7.6;\n\nimport '../interfaces/IERC20Minimal.sol';\n\nimport '../libraries/SafeCast.sol';\nimport '../libraries/TickMath.sol';\n\nimport '../interfaces/callback/IUniswapV3MintCallback.sol';\nimport '../interfaces/callback/IUniswapV3SwapCallback.sol';\nimport '../interfaces/callback/IUniswapV3FlashCallback.sol';\n\nimport '../interfaces/IUniswapV3Pool.sol';\n\ncontract TestUniswapV3Callee is IUniswapV3MintCallback, IUniswapV3SwapCallback, IUniswapV3FlashCallback {\n    using SafeCast for uint256;\n\n    function swapExact0For1(\n        address pool,\n        uint256 amount0In,\n        address recipient,\n        uint160 sqrtPriceLimitX96\n    ) external {\n        IUniswapV3Pool(pool).swap(recipient, true, amount0In.toInt256(), sqrtPriceLimitX96, abi.encode(msg.sender));\n    }\n\n    function swap0ForExact1(\n        address pool,\n        uint256 amount1Out,\n        address recipient,\n        uint160 sqrtPriceLimitX96\n    ) external {\n        IUniswapV3Pool(pool).swap(recipient, true, -amount1Out.toInt256(), sqrtPriceLimitX96, abi.encode(msg.sender));\n    }\n\n    function swapExact1For0(\n        address pool,\n        uint256 amount1In,\n        address recipient,\n        uint160 sqrtPriceLimitX96\n    ) external {\n        IUniswapV3Pool(pool).swap(recipient, false, amount1In.toInt256(), sqrtPriceLimitX96, abi.encode(msg.sender));\n    }\n\n    function swap1ForExact0(\n        address pool,\n        uint256 amount0Out,\n        address recipient,\n        uint160 sqrtPriceLimitX96\n    ) external {\n        IUniswapV3Pool(pool).swap(recipient, false, -amount0Out.toInt256(), sqrtPriceLimitX96, abi.encode(msg.sender));\n    }\n\n    function swapToLowerSqrtPrice(\n        address pool,\n        uint160 sqrtPriceX96,\n        address recipient\n    ) external {\n        IUniswapV3Pool(pool).swap(recipient, true, type(int256).max, sqrtPriceX96, abi.encode(msg.sender));\n    }\n\n    function swapToHigherSqrtPrice(\n        address pool,\n        uint160 sqrtPriceX96,\n        address recipient\n    ) external {\n        IUniswapV3Pool(pool).swap(recipient, false, type(int256).max, sqrtPriceX96, abi.encode(msg.sender));\n    }\n\n    event SwapCallback(int256 amount0Delta, int256 amount1Delta);\n\n    function uniswapV3SwapCallback(\n        int256 amount0Delta,\n        int256 amount1Delta,\n        bytes calldata data\n    ) external override {\n        address sender = abi.decode(data, (address));\n\n        emit SwapCallback(amount0Delta, amount1Delta);\n\n        if (amount0Delta > 0) {\n            IERC20Minimal(IUniswapV3Pool(msg.sender).token0()).transferFrom(sender, msg.sender, uint256(amount0Delta));\n        } else if (amount1Delta > 0) {\n            IERC20Minimal(IUniswapV3Pool(msg.sender).token1()).transferFrom(sender, msg.sender, uint256(amount1Delta));\n        } else {\n            // if both are not gt 0, both must be 0.\n            assert(amount0Delta == 0 && amount1Delta == 0);\n        }\n    }\n\n    function mint(\n        address pool,\n        address recipient,\n        int24 tickLower,\n        int24 tickUpper,\n        uint128 amount\n    ) external {\n        IUniswapV3Pool(pool).mint(recipient, tickLower, tickUpper, amount, abi.encode(msg.sender));\n    }\n\n    event MintCallback(uint256 amount0Owed, uint256 amount1Owed);\n\n    function uniswapV3MintCallback(\n        uint256 amount0Owed,\n        uint256 amount1Owed,\n        bytes calldata data\n    ) external override {\n        address sender = abi.decode(data, (address));\n\n        emit MintCallback(amount0Owed, amount1Owed);\n        if (amount0Owed > 0)\n            IERC20Minimal(IUniswapV3Pool(msg.sender).token0()).transferFrom(sender, msg.sender, amount0Owed);\n        if (amount1Owed > 0)\n            IERC20Minimal(IUniswapV3Pool(msg.sender).token1()).transferFrom(sender, msg.sender, amount1Owed);\n    }\n\n    event FlashCallback(uint256 fee0, uint256 fee1);\n\n    function flash(\n        address pool,\n        address recipient,\n        uint256 amount0,\n        uint256 amount1,\n        uint256 pay0,\n        uint256 pay1\n    ) external {\n        IUniswapV3Pool(pool).flash(recipient, amount0, amount1, abi.encode(msg.sender, pay0, pay1));\n    }\n\n    function uniswapV3FlashCallback(\n        uint256 fee0,\n        uint256 fee1,\n        bytes calldata data\n    ) external override {\n        emit FlashCallback(fee0, fee1);\n\n        (address sender, uint256 pay0, uint256 pay1) = abi.decode(data, (address, uint256, uint256));\n\n        if (pay0 > 0) IERC20Minimal(IUniswapV3Pool(msg.sender).token0()).transferFrom(sender, msg.sender, pay0);\n        if (pay1 > 0) IERC20Minimal(IUniswapV3Pool(msg.sender).token1()).transferFrom(sender, msg.sender, pay1);\n    }\n}\n",
  "sourcePath": "/Users/admin/Desktop/amm/amm/get_insidefee/contracts/uniswap/test/TestUniswapV3Callee.sol",
  "compiler": {
    "name": "solc",
    "version": "0.7.6+commit.7338295f.Emscripten.clang"
  },
  "schemaVersion": "3.2.2-next.0",
  "updatedAt": "2021-08-03T06:36:35.229Z",
  "devdoc": {
    "kind": "dev",
    "methods": {
      "uniswapV3FlashCallback(uint256,uint256,bytes)": {
        "details": "In the implementation you must repay the pool the tokens sent by flash plus the computed fee amounts. The caller of this method must be checked to be a UniswapV3Pool deployed by the canonical UniswapV3Factory.",
        "params": {
          "data": "Any data passed through by the caller via the IUniswapV3PoolActions#flash call",
          "fee0": "The fee amount in token0 due to the pool by the end of the flash",
          "fee1": "The fee amount in token1 due to the pool by the end of the flash"
        }
      },
      "uniswapV3MintCallback(uint256,uint256,bytes)": {
        "details": "In the implementation you must pay the pool tokens owed for the minted liquidity. The caller of this method must be checked to be a UniswapV3Pool deployed by the canonical UniswapV3Factory.",
        "params": {
          "amount0Owed": "The amount of token0 due to the pool for the minted liquidity",
          "amount1Owed": "The amount of token1 due to the pool for the minted liquidity",
          "data": "Any data passed through by the caller via the IUniswapV3PoolActions#mint call"
        }
      },
      "uniswapV3SwapCallback(int256,int256,bytes)": {
        "details": "In the implementation you must pay the pool tokens owed for the swap. The caller of this method must be checked to be a UniswapV3Pool deployed by the canonical UniswapV3Factory. amount0Delta and amount1Delta can both be 0 if no tokens were swapped.",
        "params": {
          "amount0Delta": "The amount of token0 that was sent (negative) or must be received (positive) by the pool by the end of the swap. If positive, the callback must send that amount of token0 to the pool.",
          "amount1Delta": "The amount of token1 that was sent (negative) or must be received (positive) by the pool by the end of the swap. If positive, the callback must send that amount of token1 to the pool.",
          "data": "Any data passed through by the caller via the IUniswapV3PoolActions#swap call"
        }
      }
    },
    "version": 1
  },
  "userdoc": {
    "kind": "user",
    "methods": {
      "uniswapV3FlashCallback(uint256,uint256,bytes)": {
        "notice": "Called to `msg.sender` after transferring to the recipient from IUniswapV3Pool#flash."
      },
      "uniswapV3MintCallback(uint256,uint256,bytes)": {
        "notice": "Called to `msg.sender` after minting liquidity to a position from IUniswapV3Pool#mint."
      },
      "uniswapV3SwapCallback(int256,int256,bytes)": {
        "notice": "Called to `msg.sender` after executing a swap via IUniswapV3Pool#swap."
      }
    },
    "version": 1
  }
}