{
  "contractName": "TestERC20",
  "abi": [
    {
      "inputs": [
        {
          "internalType": "uint256",
          "name": "amountToMint",
          "type": "uint256"
        }
      ],
      "stateMutability": "nonpayable",
      "type": "constructor"
    },
    {
      "anonymous": false,
      "inputs": [
        {
          "indexed": true,
          "internalType": "address",
          "name": "owner",
          "type": "address"
        },
        {
          "indexed": true,
          "internalType": "address",
          "name": "spender",
          "type": "address"
        },
        {
          "indexed": false,
          "internalType": "uint256",
          "name": "value",
          "type": "uint256"
        }
      ],
      "name": "Approval",
      "type": "event"
    },
    {
      "anonymous": false,
      "inputs": [
        {
          "indexed": true,
          "internalType": "address",
          "name": "from",
          "type": "address"
        },
        {
          "indexed": true,
          "internalType": "address",
          "name": "to",
          "type": "address"
        },
        {
          "indexed": false,
          "internalType": "uint256",
          "name": "value",
          "type": "uint256"
        }
      ],
      "name": "Transfer",
      "type": "event"
    },
    {
      "inputs": [
        {
          "internalType": "address",
          "name": "",
          "type": "address"
        },
        {
          "internalType": "address",
          "name": "",
          "type": "address"
        }
      ],
      "name": "allowance",
      "outputs": [
        {
          "internalType": "uint256",
          "name": "",
          "type": "uint256"
        }
      ],
      "stateMutability": "view",
      "type": "function"
    },
    {
      "inputs": [
        {
          "internalType": "address",
          "name": "",
          "type": "address"
        }
      ],
      "name": "balanceOf",
      "outputs": [
        {
          "internalType": "uint256",
          "name": "",
          "type": "uint256"
        }
      ],
      "stateMutability": "view",
      "type": "function"
    },
    {
      "inputs": [
        {
          "internalType": "address",
          "name": "to",
          "type": "address"
        },
        {
          "internalType": "uint256",
          "name": "amount",
          "type": "uint256"
        }
      ],
      "name": "mint",
      "outputs": [],
      "stateMutability": "nonpayable",
      "type": "function"
    },
    {
      "inputs": [
        {
          "internalType": "address",
          "name": "recipient",
          "type": "address"
        },
        {
          "internalType": "uint256",
          "name": "amount",
          "type": "uint256"
        }
      ],
      "name": "transfer",
      "outputs": [
        {
          "internalType": "bool",
          "name": "",
          "type": "bool"
        }
      ],
      "stateMutability": "nonpayable",
      "type": "function"
    },
    {
      "inputs": [
        {
          "internalType": "address",
          "name": "spender",
          "type": "address"
        },
        {
          "internalType": "uint256",
          "name": "amount",
          "type": "uint256"
        }
      ],
      "name": "approve",
      "outputs": [
        {
          "internalType": "bool",
          "name": "",
          "type": "bool"
        }
      ],
      "stateMutability": "nonpayable",
      "type": "function"
    },
    {
      "inputs": [
        {
          "internalType": "address",
          "name": "sender",
          "type": "address"
        },
        {
          "internalType": "address",
          "name": "recipient",
          "type": "address"
        },
        {
          "internalType": "uint256",
          "name": "amount",
          "type": "uint256"
        }
      ],
      "name": "transferFrom",
      "outputs": [
        {
          "internalType": "bool",
          "name": "",
          "type": "bool"
        }
      ],
      "stateMutability": "nonpayable",
      "type": "function"
    }
  ],
  "bytecode": "0x608060405234801561001057600080fd5b50604051610d01380380610d018339818101604052602081101561003357600080fd5b8101908080519060200190929190505050610054338261005a60201b60201c565b5061015d565b6000816000808573ffffffffffffffffffffffffffffffffffffffff1673ffffffffffffffffffffffffffffffffffffffff1681526020019081526020016000205401905081811015610115576040517f08c379a00000000000000000000000000000000000000000000000000000000081526004018080602001828103825260108152602001807f6f766572666c6f772062616c616e63650000000000000000000000000000000081525060200191505060405180910390fd5b806000808573ffffffffffffffffffffffffffffffffffffffff1673ffffffffffffffffffffffffffffffffffffffff16815260200190815260200160002081905550505050565b610b958061016c6000396000f3fe608060405234801561001057600080fd5b50600436106100625760003560e01c8063095ea7b31461006757806323b872dd146100cb57806340c10f191461014f57806370a082311461019d578063a9059cbb146101f5578063dd62ed3e14610259575b600080fd5b6100b36004803603604081101561007d57600080fd5b81019080803573ffffffffffffffffffffffffffffffffffffffff169060200190929190803590602001909291905050506102d1565b60405180821515815260200191505060405180910390f35b610137600480360360608110156100e157600080fd5b81019080803573ffffffffffffffffffffffffffffffffffffffff169060200190929190803573ffffffffffffffffffffffffffffffffffffffff169060200190929190803590602001909291905050506103c3565b60405180821515815260200191505060405180910390f35b61019b6004803603604081101561016557600080fd5b81019080803573ffffffffffffffffffffffffffffffffffffffff169060200190929190803590602001909291905050506107af565b005b6101df600480360360208110156101b357600080fd5b81019080803573ffffffffffffffffffffffffffffffffffffffff1690602001909291905050506108b2565b6040518082815260200191505060405180910390f35b6102416004803603604081101561020b57600080fd5b81019080803573ffffffffffffffffffffffffffffffffffffffff169060200190929190803590602001909291905050506108ca565b60405180821515815260200191505060405180910390f35b6102bb6004803603604081101561026f57600080fd5b81019080803573ffffffffffffffffffffffffffffffffffffffff169060200190929190803573ffffffffffffffffffffffffffffffffffffffff169060200190929190505050610b3a565b6040518082815260200191505060405180910390f35b600081600160003373ffffffffffffffffffffffffffffffffffffffff1673ffffffffffffffffffffffffffffffffffffffff16815260200190815260200160002060008573ffffffffffffffffffffffffffffffffffffffff1673ffffffffffffffffffffffffffffffffffffffff168152602001908152602001600020819055508273ffffffffffffffffffffffffffffffffffffffff163373ffffffffffffffffffffffffffffffffffffffff167f8c5be1e5ebec7d5bd14f71427d1e84f3dd0314c0f7b2291e5b200ac8c7c3b925846040518082815260200191505060405180910390a36001905092915050565b600080600160008673ffffffffffffffffffffffffffffffffffffffff1673ffffffffffffffffffffffffffffffffffffffff16815260200190815260200160002060003373ffffffffffffffffffffffffffffffffffffffff1673ffffffffffffffffffffffffffffffffffffffff168152602001908152602001600020549050828110156104bb576040517f08c379a00000000000000000000000000000000000000000000000000000000081526004018080602001828103825260168152602001807f616c6c6f77616e636520696e73756666696369656e740000000000000000000081525060200191505060405180910390fd5b828103600160008773ffffffffffffffffffffffffffffffffffffffff1673ffffffffffffffffffffffffffffffffffffffff16815260200190815260200160002060003373ffffffffffffffffffffffffffffffffffffffff1673ffffffffffffffffffffffffffffffffffffffff1681526020019081526020016000208190555060008060008673ffffffffffffffffffffffffffffffffffffffff1673ffffffffffffffffffffffffffffffffffffffff1681526020019081526020016000205490508084820110156105f9576040517f08c379a000000000000000000000000000000000000000000000000000000000815260040180806020018281038252601a8152602001807f6f766572666c6f772062616c616e636520726563697069656e7400000000000081525060200191505060405180910390fd5b8381016000808773ffffffffffffffffffffffffffffffffffffffff1673ffffffffffffffffffffffffffffffffffffffff1681526020019081526020016000208190555060008060008873ffffffffffffffffffffffffffffffffffffffff1673ffffffffffffffffffffffffffffffffffffffff168152602001908152602001600020549050848110156106f7576040517f08c379a00000000000000000000000000000000000000000000000000000000081526004018080602001828103825260188152602001807f756e646572666c6f772062616c616e63652073656e646572000000000000000081525060200191505060405180910390fd5b8481036000808973ffffffffffffffffffffffffffffffffffffffff1673ffffffffffffffffffffffffffffffffffffffff168152602001908152602001600020819055508573ffffffffffffffffffffffffffffffffffffffff168773ffffffffffffffffffffffffffffffffffffffff167fddf252ad1be2c89b69c2b068fc378daa952ba7f163c4a11628f55a4df523b3ef876040518082815260200191505060405180910390a3600193505050509392505050565b6000816000808573ffffffffffffffffffffffffffffffffffffffff1673ffffffffffffffffffffffffffffffffffffffff168152602001908152602001600020540190508181101561086a576040517f08c379a00000000000000000000000000000000000000000000000000000000081526004018080602001828103825260108152602001807f6f766572666c6f772062616c616e63650000000000000000000000000000000081525060200191505060405180910390fd5b806000808573ffffffffffffffffffffffffffffffffffffffff1673ffffffffffffffffffffffffffffffffffffffff16815260200190815260200160002081905550505050565b60006020528060005260406000206000915090505481565b6000806000803373ffffffffffffffffffffffffffffffffffffffff1673ffffffffffffffffffffffffffffffffffffffff16815260200190815260200160002054905082811015610984576040517f08c379a00000000000000000000000000000000000000000000000000000000081526004018080602001828103825260148152602001807f696e73756666696369656e742062616c616e636500000000000000000000000081525060200191505060405180910390fd5b8281036000803373ffffffffffffffffffffffffffffffffffffffff1673ffffffffffffffffffffffffffffffffffffffff1681526020019081526020016000208190555060008060008673ffffffffffffffffffffffffffffffffffffffff1673ffffffffffffffffffffffffffffffffffffffff168152602001908152602001600020549050808482011015610a84576040517f08c379a000000000000000000000000000000000000000000000000000000000815260040180806020018281038252601a8152602001807f726563697069656e742062616c616e6365206f766572666c6f7700000000000081525060200191505060405180910390fd5b8381016000808773ffffffffffffffffffffffffffffffffffffffff1673ffffffffffffffffffffffffffffffffffffffff168152602001908152602001600020819055508473ffffffffffffffffffffffffffffffffffffffff163373ffffffffffffffffffffffffffffffffffffffff167fddf252ad1be2c89b69c2b068fc378daa952ba7f163c4a11628f55a4df523b3ef866040518082815260200191505060405180910390a360019250505092915050565b600160205281600052604060002060205280600052604060002060009150915050548156fea2646970667358221220a40110ab784569e5a9d224d1b23aaf3db5c6649131d678ef0c0691e55988a46b64736f6c63430007060033",
  "immutableReferences": {},
  "source": "// SPDX-License-Identifier: UNLICENSED\npragma solidity =0.7.6;\n\nimport '../interfaces/IERC20Minimal.sol';\n\ncontract TestERC20 is IERC20Minimal {\n    mapping(address => uint256) public override balanceOf;\n    mapping(address => mapping(address => uint256)) public override allowance;\n\n    constructor(uint256 amountToMint) {\n        mint(msg.sender, amountToMint);\n    }\n\n    function mint(address to, uint256 amount) public {\n        uint256 balanceNext = balanceOf[to] + amount;\n        require(balanceNext >= amount, 'overflow balance');\n        balanceOf[to] = balanceNext;\n    }\n\n    function transfer(address recipient, uint256 amount) external override returns (bool) {\n        uint256 balanceBefore = balanceOf[msg.sender];\n        require(balanceBefore >= amount, 'insufficient balance');\n        balanceOf[msg.sender] = balanceBefore - amount;\n\n        uint256 balanceRecipient = balanceOf[recipient];\n        require(balanceRecipient + amount >= balanceRecipient, 'recipient balance overflow');\n        balanceOf[recipient] = balanceRecipient + amount;\n\n        emit Transfer(msg.sender, recipient, amount);\n        return true;\n    }\n\n    function approve(address spender, uint256 amount) external override returns (bool) {\n        allowance[msg.sender][spender] = amount;\n        emit Approval(msg.sender, spender, amount);\n        return true;\n    }\n\n    function transferFrom(\n        address sender,\n        address recipient,\n        uint256 amount\n    ) external override returns (bool) {\n        uint256 allowanceBefore = allowance[sender][msg.sender];\n        require(allowanceBefore >= amount, 'allowance insufficient');\n\n        allowance[sender][msg.sender] = allowanceBefore - amount;\n\n        uint256 balanceRecipient = balanceOf[recipient];\n        require(balanceRecipient + amount >= balanceRecipient, 'overflow balance recipient');\n        balanceOf[recipient] = balanceRecipient + amount;\n        uint256 balanceSender = balanceOf[sender];\n        require(balanceSender >= amount, 'underflow balance sender');\n        balanceOf[sender] = balanceSender - amount;\n\n        emit Transfer(sender, recipient, amount);\n        return true;\n    }\n}\n",
  "sourcePath": "/Users/admin/Desktop/amm/amm/get_insidefee/contracts/uniswap/test/TestERC20.sol",
  "compiler": {
    "name": "solc",
    "version": "0.7.6+commit.7338295f.Emscripten.clang"
  },
  "schemaVersion": "3.2.2-next.0",
  "updatedAt": "2021-08-03T06:36:35.225Z",
  "devdoc": {
    "kind": "dev",
    "methods": {
      "approve(address,uint256)": {
        "params": {
          "amount": "The amount of tokens allowed to be used by `spender`",
          "spender": "The account which will be allowed to spend a given amount of the owners tokens"
        },
        "returns": {
          "_0": "Returns true for a successful approval, false for unsuccessful"
        }
      },
      "transfer(address,uint256)": {
        "params": {
          "amount": "The number of tokens to send from the sender to the recipient",
          "recipient": "The account that will receive the amount transferred"
        },
        "returns": {
          "_0": "Returns true for a successful transfer, false for an unsuccessful transfer"
        }
      },
      "transferFrom(address,address,uint256)": {
        "params": {
          "amount": "The amount of the transfer",
          "recipient": "The recipient of the transfer",
          "sender": "The account from which the transfer will be initiated"
        },
        "returns": {
          "_0": "Returns true for a successful transfer, false for unsuccessful"
        }
      }
    },
    "stateVariables": {
      "allowance": {
        "params": {
          "owner": "The account of the token owner",
          "spender": "The account of the token spender"
        },
        "return": "The current allowance granted by `owner` to `spender`"
      },
      "balanceOf": {
        "params": {
          "account": "The account for which to look up the number of tokens it has, i.e. its balance"
        },
        "return": "The number of tokens held by the account"
      }
    },
    "version": 1
  },
  "userdoc": {
    "events": {
      "Approval(address,address,uint256)": {
        "notice": "Event emitted when the approval amount for the spender of a given owner's tokens changes."
      },
      "Transfer(address,address,uint256)": {
        "notice": "Event emitted when tokens are transferred from one address to another, either via `#transfer` or `#transferFrom`."
      }
    },
    "kind": "user",
    "methods": {
      "allowance(address,address)": {
        "notice": "Returns the current allowance given to a spender by an owner"
      },
      "approve(address,uint256)": {
        "notice": "Sets the allowance of a spender from the `msg.sender` to the value `amount`"
      },
      "balanceOf(address)": {
        "notice": "Returns the balance of a token"
      },
      "transfer(address,uint256)": {
        "notice": "Transfers the amount of token from the `msg.sender` to the recipient"
      },
      "transferFrom(address,address,uint256)": {
        "notice": "Transfers `amount` tokens from `sender` to `recipient` up to the allowance given to the `msg.sender`"
      }
    },
    "version": 1
  }
}