{
  "contractName": "TestUniswapV3Router",
  "abi": [
    {
      "anonymous": false,
      "inputs": [
        {
          "indexed": false,
          "internalType": "int256",
          "name": "amount0Delta",
          "type": "int256"
        },
        {
          "indexed": false,
          "internalType": "int256",
          "name": "amount1Delta",
          "type": "int256"
        }
      ],
      "name": "SwapCallback",
      "type": "event"
    },
    {
      "inputs": [
        {
          "internalType": "address",
          "name": "recipient",
          "type": "address"
        },
        {
          "internalType": "address",
          "name": "poolInput",
          "type": "address"
        },
        {
          "internalType": "address",
          "name": "poolOutput",
          "type": "address"
        },
        {
          "internalType": "uint256",
          "name": "amount0Out",
          "type": "uint256"
        }
      ],
      "name": "swapForExact0Multi",
      "outputs": [],
      "stateMutability": "nonpayable",
      "type": "function"
    },
    {
      "inputs": [
        {
          "internalType": "address",
          "name": "recipient",
          "type": "address"
        },
        {
          "internalType": "address",
          "name": "poolInput",
          "type": "address"
        },
        {
          "internalType": "address",
          "name": "poolOutput",
          "type": "address"
        },
        {
          "internalType": "uint256",
          "name": "amount1Out",
          "type": "uint256"
        }
      ],
      "name": "swapForExact1Multi",
      "outputs": [],
      "stateMutability": "nonpayable",
      "type": "function"
    },
    {
      "inputs": [
        {
          "internalType": "int256",
          "name": "amount0Delta",
          "type": "int256"
        },
        {
          "internalType": "int256",
          "name": "amount1Delta",
          "type": "int256"
        },
        {
          "internalType": "bytes",
          "name": "data",
          "type": "bytes"
        }
      ],
      "name": "uniswapV3SwapCallback",
      "outputs": [],
      "stateMutability": "nonpayable",
      "type": "function"
    }
  ],
  "bytecode": "0x608060405234801561001057600080fd5b50610f6d806100206000396000f3fe608060405234801561001057600080fd5b50600436106100415760003560e01c8063c35a2b6814610046578063c96aa6c7146100d4578063fa461e3314610162575b600080fd5b6100d26004803603608081101561005c57600080fd5b81019080803573ffffffffffffffffffffffffffffffffffffffff169060200190929190803573ffffffffffffffffffffffffffffffffffffffff169060200190929190803573ffffffffffffffffffffffffffffffffffffffff169060200190929190803590602001909291905050506101ef565b005b610160600480360360808110156100ea57600080fd5b81019080803573ffffffffffffffffffffffffffffffffffffffff169060200190929190803573ffffffffffffffffffffffffffffffffffffffff169060200190929190803573ffffffffffffffffffffffffffffffffffffffff16906020019092919080359060200190929190505050610468565b005b6101ed6004803603606081101561017857600080fd5b810190808035906020019092919080359060200190929190803590602001906401000000008111156101a957600080fd5b8201836020820111156101bb57600080fd5b803590602001918460018302840111640100000000831117156101dd57600080fd5b90919293919293905050506106f0565b005b6000600167ffffffffffffffff8111801561020957600080fd5b506040519080825280602002602001820160405280156102385781602001602082028036833780820191505090505b509050838160008151811061024957fe5b602002602001019073ffffffffffffffffffffffffffffffffffffffff16908173ffffffffffffffffffffffffffffffffffffffff16815250508273ffffffffffffffffffffffffffffffffffffffff1663128acb088660016102ab86610f01565b60000360016401000276a301863360405160200180806020018373ffffffffffffffffffffffffffffffffffffffff168152602001828103825284818151815260200191508051906020019060200280838360005b8381101561031b578082015181840152602081019050610300565b5050505090500193505050506040516020818303038152906040526040518663ffffffff1660e01b8152600401808673ffffffffffffffffffffffffffffffffffffffff16815260200185151581526020018481526020018373ffffffffffffffffffffffffffffffffffffffff16815260200180602001828103825283818151815260200191508051906020019080838360005b838110156103cb5780820151818401526020810190506103b0565b50505050905090810190601f1680156103f85780820380516001836020036101000a031916815260200191505b5096505050505050506040805180830381600087803b15801561041a57600080fd5b505af115801561042e573d6000803e3d6000fd5b505050506040513d604081101561044457600080fd5b81019080805190602001909291908051906020019092919050505050505050505050565b6000600167ffffffffffffffff8111801561048257600080fd5b506040519080825280602002602001820160405280156104b15781602001602082028036833780820191505090505b50905083816000815181106104c257fe5b602002602001019073ffffffffffffffffffffffffffffffffffffffff16908173ffffffffffffffffffffffffffffffffffffffff16815250508273ffffffffffffffffffffffffffffffffffffffff1663128acb0886600061052486610f01565b600003600173fffd8963efd1fc6a506488495d951d5263988d2603863360405160200180806020018373ffffffffffffffffffffffffffffffffffffffff168152602001828103825284818151815260200191508051906020019060200280838360005b838110156105a3578082015181840152602081019050610588565b5050505090500193505050506040516020818303038152906040526040518663ffffffff1660e01b8152600401808673ffffffffffffffffffffffffffffffffffffffff16815260200185151581526020018481526020018373ffffffffffffffffffffffffffffffffffffffff16815260200180602001828103825283818151815260200191508051906020019080838360005b83811015610653578082015181840152602081019050610638565b50505050905090810190601f1680156106805780820380516001836020036101000a031916815260200191505b5096505050505050506040805180830381600087803b1580156106a257600080fd5b505af11580156106b6573d6000803e3d6000fd5b505050506040513d60408110156106cc57600080fd5b81019080805190602001909291908051906020019092919050505050505050505050565b7fd48241df4a75e663b29e55f9506b31f77ed0f48cfe7e7612d1163144995dc1ca8484604051808381526020018281526020019250505060405180910390a16000808383604081101561074257600080fd5b810190808035906020019064010000000081111561075f57600080fd5b82018360208201111561077157600080fd5b8035906020019184602083028401116401000000008311171561079357600080fd5b919080806020026020016040519081016040528093929190818152602001838360200280828437600081840152601f19601f820116905080830192505050505050509192919290803573ffffffffffffffffffffffffffffffffffffffff16906020019092919050505091509150600182511415610c5357600080871361089a573373ffffffffffffffffffffffffffffffffffffffff1663d21220a76040518163ffffffff1660e01b815260040160206040518083038186803b15801561085a57600080fd5b505afa15801561086e573d6000803e3d6000fd5b505050506040513d602081101561088457600080fd5b810190808051906020019092919050505061091c565b3373ffffffffffffffffffffffffffffffffffffffff16630dfe16816040518163ffffffff1660e01b815260040160206040518083038186803b1580156108e057600080fd5b505afa1580156108f4573d6000803e3d6000fd5b505050506040513d602081101561090a57600080fd5b81019080805190602001909291905050505b9050600080881361092d578661092f565b875b905060008460008151811061094057fe5b602002602001015173ffffffffffffffffffffffffffffffffffffffff1663d21220a76040518163ffffffff1660e01b815260040160206040518083038186803b15801561098d57600080fd5b505afa1580156109a1573d6000803e3d6000fd5b505050506040513d60208110156109b757600080fd5b810190808051906020019092919050505073ffffffffffffffffffffffffffffffffffffffff168373ffffffffffffffffffffffffffffffffffffffff1614905084600081518110610a0557fe5b602002602001015173ffffffffffffffffffffffffffffffffffffffff1663128acb0833838560000385610a5057600173fffd8963efd1fc6a506488495d951d5263988d2603610a5a565b60016401000276a3015b600067ffffffffffffffff81118015610a7257600080fd5b50604051908082528060200260200182016040528015610aa15781602001602082028036833780820191505090505b508a60405160200180806020018373ffffffffffffffffffffffffffffffffffffffff168152602001828103825284818151815260200191508051906020019060200280838360005b83811015610b05578082015181840152602081019050610aea565b5050505090500193505050506040516020818303038152906040526040518663ffffffff1660e01b8152600401808673ffffffffffffffffffffffffffffffffffffffff16815260200185151581526020018481526020018373ffffffffffffffffffffffffffffffffffffffff16815260200180602001828103825283818151815260200191508051906020019080838360005b83811015610bb5578082015181840152602081019050610b9a565b50505050905090810190601f168015610be25780820380516001836020036101000a031916815260200191505b5096505050505050506040805180830381600087803b158015610c0457600080fd5b505af1158015610c18573d6000803e3d6000fd5b505050506040513d6040811015610c2e57600080fd5b8101908080519060200190929190805190602001909291905050505050505050610ef9565b6000861315610dac573373ffffffffffffffffffffffffffffffffffffffff16630dfe16816040518163ffffffff1660e01b815260040160206040518083038186803b158015610ca257600080fd5b505afa158015610cb6573d6000803e3d6000fd5b505050506040513d6020811015610ccc57600080fd5b810190808051906020019092919050505073ffffffffffffffffffffffffffffffffffffffff166323b872dd8233896040518463ffffffff1660e01b8152600401808473ffffffffffffffffffffffffffffffffffffffff1681526020018373ffffffffffffffffffffffffffffffffffffffff1681526020018281526020019350505050602060405180830381600087803b158015610d6b57600080fd5b505af1158015610d7f573d6000803e3d6000fd5b505050506040513d6020811015610d9557600080fd5b810190808051906020019092919050505050610ef8565b3373ffffffffffffffffffffffffffffffffffffffff1663d21220a76040518163ffffffff1660e01b815260040160206040518083038186803b158015610df257600080fd5b505afa158015610e06573d6000803e3d6000fd5b505050506040513d6020811015610e1c57600080fd5b810190808051906020019092919050505073ffffffffffffffffffffffffffffffffffffffff166323b872dd8233886040518463ffffffff1660e01b8152600401808473ffffffffffffffffffffffffffffffffffffffff1681526020018373ffffffffffffffffffffffffffffffffffffffff1681526020018281526020019350505050602060405180830381600087803b158015610ebb57600080fd5b505af1158015610ecf573d6000803e3d6000fd5b505050506040513d6020811015610ee557600080fd5b8101908080519060200190929190505050505b5b505050505050565b60007f80000000000000000000000000000000000000000000000000000000000000008210610f2f57600080fd5b81905091905056fea264697066735822122062c05e0fe290f48dcdbca72536ae31f86ee687e54511511ec437372c9b14349964736f6c63430007060033",
  "immutableReferences": {},
  "source": "// SPDX-License-Identifier: UNLICENSED\npragma solidity =0.7.6;\n\nimport '../libraries/SafeCast.sol';\nimport '../libraries/TickMath.sol';\n\nimport '../interfaces/IERC20Minimal.sol';\nimport '../interfaces/callback/IUniswapV3SwapCallback.sol';\nimport '../interfaces/IUniswapV3Pool.sol';\n\ncontract TestUniswapV3Router is IUniswapV3SwapCallback {\n    using SafeCast for uint256;\n\n    // flash swaps for an exact amount of token0 in the output pool\n    function swapForExact0Multi(\n        address recipient,\n        address poolInput,\n        address poolOutput,\n        uint256 amount0Out\n    ) external {\n        address[] memory pools = new address[](1);\n        pools[0] = poolInput;\n        IUniswapV3Pool(poolOutput).swap(\n            recipient,\n            false,\n            -amount0Out.toInt256(),\n            TickMath.MAX_SQRT_RATIO - 1,\n            abi.encode(pools, msg.sender)\n        );\n    }\n\n    // flash swaps for an exact amount of token1 in the output pool\n    function swapForExact1Multi(\n        address recipient,\n        address poolInput,\n        address poolOutput,\n        uint256 amount1Out\n    ) external {\n        address[] memory pools = new address[](1);\n        pools[0] = poolInput;\n        IUniswapV3Pool(poolOutput).swap(\n            recipient,\n            true,\n            -amount1Out.toInt256(),\n            TickMath.MIN_SQRT_RATIO + 1,\n            abi.encode(pools, msg.sender)\n        );\n    }\n\n    event SwapCallback(int256 amount0Delta, int256 amount1Delta);\n\n    function uniswapV3SwapCallback(\n        int256 amount0Delta,\n        int256 amount1Delta,\n        bytes calldata data\n    ) public override {\n        emit SwapCallback(amount0Delta, amount1Delta);\n\n        (address[] memory pools, address payer) = abi.decode(data, (address[], address));\n\n        if (pools.length == 1) {\n            // get the address and amount of the token that we need to pay\n            address tokenToBePaid =\n                amount0Delta > 0 ? IUniswapV3Pool(msg.sender).token0() : IUniswapV3Pool(msg.sender).token1();\n            int256 amountToBePaid = amount0Delta > 0 ? amount0Delta : amount1Delta;\n\n            bool zeroForOne = tokenToBePaid == IUniswapV3Pool(pools[0]).token1();\n            IUniswapV3Pool(pools[0]).swap(\n                msg.sender,\n                zeroForOne,\n                -amountToBePaid,\n                zeroForOne ? TickMath.MIN_SQRT_RATIO + 1 : TickMath.MAX_SQRT_RATIO - 1,\n                abi.encode(new address[](0), payer)\n            );\n        } else {\n            if (amount0Delta > 0) {\n                IERC20Minimal(IUniswapV3Pool(msg.sender).token0()).transferFrom(\n                    payer,\n                    msg.sender,\n                    uint256(amount0Delta)\n                );\n            } else {\n                IERC20Minimal(IUniswapV3Pool(msg.sender).token1()).transferFrom(\n                    payer,\n                    msg.sender,\n                    uint256(amount1Delta)\n                );\n            }\n        }\n    }\n}\n",
  "sourcePath": "/Users/admin/Desktop/amm/amm/get_insidefee/contracts/uniswap/test/TestUniswapV3Router.sol",
  "compiler": {
    "name": "solc",
    "version": "0.7.6+commit.7338295f.Emscripten.clang"
  },
  "schemaVersion": "3.2.2-next.0",
  "updatedAt": "2021-08-03T06:36:35.242Z",
  "devdoc": {
    "kind": "dev",
    "methods": {
      "uniswapV3SwapCallback(int256,int256,bytes)": {
        "details": "In the implementation you must pay the pool tokens owed for the swap. The caller of this method must be checked to be a UniswapV3Pool deployed by the canonical UniswapV3Factory. amount0Delta and amount1Delta can both be 0 if no tokens were swapped.",
        "params": {
          "amount0Delta": "The amount of token0 that was sent (negative) or must be received (positive) by the pool by the end of the swap. If positive, the callback must send that amount of token0 to the pool.",
          "amount1Delta": "The amount of token1 that was sent (negative) or must be received (positive) by the pool by the end of the swap. If positive, the callback must send that amount of token1 to the pool.",
          "data": "Any data passed through by the caller via the IUniswapV3PoolActions#swap call"
        }
      }
    },
    "version": 1
  },
  "userdoc": {
    "kind": "user",
    "methods": {
      "uniswapV3SwapCallback(int256,int256,bytes)": {
        "notice": "Called to `msg.sender` after executing a swap via IUniswapV3Pool#swap."
      }
    },
    "version": 1
  }
}