{
  "contractName": "TickBitmapEchidnaTest",
  "abi": [
    {
      "inputs": [
        {
          "internalType": "int24",
          "name": "tick",
          "type": "int24"
        }
      ],
      "name": "flipTick",
      "outputs": [],
      "stateMutability": "nonpayable",
      "type": "function"
    },
    {
      "inputs": [
        {
          "internalType": "int24",
          "name": "tick",
          "type": "int24"
        },
        {
          "internalType": "bool",
          "name": "lte",
          "type": "bool"
        }
      ],
      "name": "checkNextInitializedTickWithinOneWordInvariants",
      "outputs": [],
      "stateMutability": "view",
      "type": "function"
    }
  ],
  "bytecode": "0x608060405234801561001057600080fd5b50610699806100206000396000f3fe608060405234801561001057600080fd5b50600436106100365760003560e01c80632854ac0a1461003b5780638815912f14610078575b600080fd5b6100766004803603604081101561005157600080fd5b81019080803560020b90602001909291908035151590602001909291905050506100a9565b005b6100a76004803603602081101561008e57600080fd5b81019080803560020b90602001909291905050506101ef565b005b6000806100c584600185600061022d909392919063ffffffff16565b91509150821561016c577fffffffffffffffffffffffffffffffffffffffffffffffffffffffffff8001008460020b12156100ff57600080fd5b8360020b8260020b131561010f57fe5b61010082850360020b1261011f57fe5b60008490505b8260020b8160020b13156101515761013c81610385565b1561014357fe5b808060019003915050610125565b5080151561015e83610385565b15151461016757fe5b6101e9565b627ffeff8460020b1261017e57600080fd5b8360020b8260020b1361018d57fe5b61010084830360020b131561019e57fe5b60006001850190505b8260020b8160020b12156101d2576101be81610385565b156101c557fe5b80806001019150506101a7565b508015156101df83610385565b1515146101e857fe5b5b50505050565b60006101fa82610385565b905061021382600160006103c69092919063ffffffff16565b8015151561022083610385565b15151461022957fe5b5050565b60008060008460020b8660020b8161024157fe5b05905060008660020b12801561026a575060008560020b8760020b8161026357fe5b0760020b14155b15610279578080600190039150505b83156102fd5760008061028b8361043e565b9150915060008160ff166001901b60018360ff166001901b030190506000818b60008660010b60010b81526020019081526020016000205416905060008114159550856102df57888360ff168603026102f2565b886102e982610461565b840360ff168603025b96505050505061037b565b60008061030c6001840161043e565b91509150600060018260ff166001901b031990506000818b60008660010b60010b815260200190815260200160002054169050600081141595508561035e57888360ff0360ff16600187010102610374565b88836103698361053c565b0360ff166001870101025b9650505050505b5094509492505050565b60008060006103a384600180600061022d909392919063ffffffff16565b915091508360020b8260020b146103bb5760006103bd565b805b92505050919050565b60008160020b8360020b816103d757fe5b0760020b146103e557600080fd5b6000806104008360020b8560020b816103fa57fe5b0561043e565b9150915060008160ff166001901b9050808660008560010b60010b815260200190815260200160002060008282541892505081905550505050505050565b60008060088360020b901d91506101008360020b8161045957fe5b079050915091565b600080821161046f57600080fd5b700100000000000000000000000000000000821061049557608082901c91506080810190505b6801000000000000000082106104b357604082901c91506040810190505b64010000000082106104cd57602082901c91506020810190505b6201000082106104e557601082901c91506010810190505b61010082106104fc57600882901c91506008810190505b6010821061051257600482901c91506004810190505b6004821061052857600282901c91506002810190505b60028210610537576001810190505b919050565b600080821161054a57600080fd5b60ff905060006fffffffffffffffffffffffffffffffff8016831611156105765760808103905061057e565b608082901c91505b600067ffffffffffffffff80168316111561059e576040810390506105a6565b604082901c91505b600063ffffffff8016831611156105c2576020810390506105ca565b602082901c91505b600061ffff8016831611156105e4576010810390506105ec565b601082901c91505b600060ff8016831611156106055760088103905061060d565b600882901c91505b6000600f831611156106245760048103905061062c565b600482901c91505b60006003831611156106435760028103905061064b565b600282901c91505b600060018316111561065e576001810390505b91905056fea264697066735822122010a02beef1453043297948e3fe68dd05f2b503246ccffccd79fd3d192afdbaaa64736f6c63430007060033",
  "immutableReferences": {},
  "source": "// SPDX-License-Identifier: UNLICENSED\npragma solidity =0.7.6;\n\nimport '../libraries/TickBitmap.sol';\n\ncontract TickBitmapEchidnaTest {\n    using TickBitmap for mapping(int16 => uint256);\n\n    mapping(int16 => uint256) private bitmap;\n\n    // returns whether the given tick is initialized\n    function isInitialized(int24 tick) private view returns (bool) {\n        (int24 next, bool initialized) = bitmap.nextInitializedTickWithinOneWord(tick, 1, true);\n        return next == tick ? initialized : false;\n    }\n\n    function flipTick(int24 tick) external {\n        bool before = isInitialized(tick);\n        bitmap.flipTick(tick, 1);\n        assert(isInitialized(tick) == !before);\n    }\n\n    function checkNextInitializedTickWithinOneWordInvariants(int24 tick, bool lte) external view {\n        (int24 next, bool initialized) = bitmap.nextInitializedTickWithinOneWord(tick, 1, lte);\n        if (lte) {\n            // type(int24).min + 256\n            require(tick >= -8388352);\n            assert(next <= tick);\n            assert(tick - next < 256);\n            // all the ticks between the input tick and the next tick should be uninitialized\n            for (int24 i = tick; i > next; i--) {\n                assert(!isInitialized(i));\n            }\n            assert(isInitialized(next) == initialized);\n        } else {\n            // type(int24).max - 256\n            require(tick < 8388351);\n            assert(next > tick);\n            assert(next - tick <= 256);\n            // all the ticks between the input tick and the next tick should be uninitialized\n            for (int24 i = tick + 1; i < next; i++) {\n                assert(!isInitialized(i));\n            }\n            assert(isInitialized(next) == initialized);\n        }\n    }\n}\n",
  "sourcePath": "/Users/admin/Desktop/amm/amm/get_insidefee/contracts/uniswap/test/TickBitmapEchidnaTest.sol",
  "compiler": {
    "name": "solc",
    "version": "0.7.6+commit.7338295f.Emscripten.clang"
  },
  "schemaVersion": "3.2.2-next.0",
  "updatedAt": "2021-08-03T06:36:35.248Z",
  "devdoc": {
    "kind": "dev",
    "methods": {},
    "version": 1
  },
  "userdoc": {
    "kind": "user",
    "methods": {},
    "version": 1
  }
}