{
  "contractName": "TickEchidnaTest",
  "abi": [
    {
      "inputs": [
        {
          "internalType": "int24",
          "name": "tickSpacing",
          "type": "int24"
        }
      ],
      "name": "checkTickSpacingToParametersInvariants",
      "outputs": [],
      "stateMutability": "pure",
      "type": "function"
    }
  ],
  "bytecode": "0x608060405234801561001057600080fd5b5061029d806100206000396000f3fe608060405234801561001057600080fd5b506004361061002b5760003560e01c8063858027e514610030575b600080fd5b61005f6004803603602081101561004657600080fd5b81019080803560020b9060200190929190505050610061565b005b7ffffffffffffffffffffffffffffffffffffffffffffffffffffffffffff2761860000360020b8160020b131561009757600080fd5b60008160020b136100a757600080fd5b6000818260020b7ffffffffffffffffffffffffffffffffffffffffffffffffffffffffffff2761860020b816100d957fe5b050290506000828360020b7ffffffffffffffffffffffffffffffffffffffffffffffffffffffffffff2761860000360020b8161011257fe5b050290506000610121846101b3565b90508260000360020b8260020b1461013557fe5b60008260020b1361014257fe5b60008460020b84840360020b8161015557fe5b0760020b1461016057fe5b600060018560020b85850360020b8161017557fe5b0560020b0190506fffffffffffffffffffffffffffffffff801681836fffffffffffffffffffffffffffffffff160211156101ac57fe5b5050505050565b600080828360020b7ffffffffffffffffffffffffffffffffffffffffffffffffffffffffffff2761860020b816101e657fe5b050290506000838460020b7ffffffffffffffffffffffffffffffffffffffffffffffffffffffffffff2761860000360020b8161021f57fe5b05029050600060018560020b84840360020b8161023857fe5b050190508062ffffff166fffffffffffffffffffffffffffffffff80168161025c57fe5b04935050505091905056fea2646970667358221220f50b77bb7415413e27dddeb87a3289c40febffc52ce014c7f900065e54d3306664736f6c63430007060033",
  "immutableReferences": {},
  "source": "// SPDX-License-Identifier: UNLICENSED\npragma solidity =0.7.6;\n\nimport '../libraries/Tick.sol';\n\ncontract TickEchidnaTest {\n    function checkTickSpacingToParametersInvariants(int24 tickSpacing) external pure {\n        require(tickSpacing <= TickMath.MAX_TICK);\n        require(tickSpacing > 0);\n\n        int24 minTick = (TickMath.MIN_TICK / tickSpacing) * tickSpacing;\n        int24 maxTick = (TickMath.MAX_TICK / tickSpacing) * tickSpacing;\n\n        uint128 maxLiquidityPerTick = Tick.tickSpacingToMaxLiquidityPerTick(tickSpacing);\n\n        // symmetry around 0 tick\n        assert(maxTick == -minTick);\n        // positive max tick\n        assert(maxTick > 0);\n        // divisibility\n        assert((maxTick - minTick) % tickSpacing == 0);\n\n        uint256 numTicks = uint256((maxTick - minTick) / tickSpacing) + 1;\n        // max liquidity at every tick is less than the cap\n        assert(uint256(maxLiquidityPerTick) * numTicks <= type(uint128).max);\n    }\n}\n",
  "sourcePath": "/Users/admin/Desktop/amm/amm/get_insidefee/contracts/uniswap/test/TickEchidnaTest.sol",
  "compiler": {
    "name": "solc",
    "version": "0.7.6+commit.7338295f.Emscripten.clang"
  },
  "schemaVersion": "3.2.2-next.0",
  "updatedAt": "2021-08-03T06:36:35.252Z",
  "devdoc": {
    "kind": "dev",
    "methods": {},
    "version": 1
  },
  "userdoc": {
    "kind": "user",
    "methods": {},
    "version": 1
  }
}