{
  "contractName": "UniswapV3PoolSwapTest",
  "abi": [
    {
      "inputs": [
        {
          "internalType": "address",
          "name": "pool",
          "type": "address"
        },
        {
          "internalType": "bool",
          "name": "zeroForOne",
          "type": "bool"
        },
        {
          "internalType": "int256",
          "name": "amountSpecified",
          "type": "int256"
        },
        {
          "internalType": "uint160",
          "name": "sqrtPriceLimitX96",
          "type": "uint160"
        }
      ],
      "name": "getSwapResult",
      "outputs": [
        {
          "internalType": "int256",
          "name": "amount0Delta",
          "type": "int256"
        },
        {
          "internalType": "int256",
          "name": "amount1Delta",
          "type": "int256"
        },
        {
          "internalType": "uint160",
          "name": "nextSqrtRatio",
          "type": "uint160"
        }
      ],
      "stateMutability": "nonpayable",
      "type": "function"
    },
    {
      "inputs": [
        {
          "internalType": "int256",
          "name": "amount0Delta",
          "type": "int256"
        },
        {
          "internalType": "int256",
          "name": "amount1Delta",
          "type": "int256"
        },
        {
          "internalType": "bytes",
          "name": "data",
          "type": "bytes"
        }
      ],
      "name": "uniswapV3SwapCallback",
      "outputs": [],
      "stateMutability": "nonpayable",
      "type": "function"
    }
  ],
  "bytecode": "0x608060405234801561001057600080fd5b5061070e806100206000396000f3fe608060405234801561001057600080fd5b50600436106100365760003560e01c80637f2ba7bc1461003b578063fa461e33146100ed575b600080fd5b6100b36004803603608081101561005157600080fd5b81019080803573ffffffffffffffffffffffffffffffffffffffff16906020019092919080351515906020019092919080359060200190929190803573ffffffffffffffffffffffffffffffffffffffff16906020019092919050505061017a565b604051808481526020018381526020018273ffffffffffffffffffffffffffffffffffffffff168152602001935050505060405180910390f35b6101786004803603606081101561010357600080fd5b8101908080359060200190929190803590602001909291908035906020019064010000000081111561013457600080fd5b82018360208201111561014657600080fd5b8035906020019184600183028401116401000000008311171561016857600080fd5b90919293919293905050506103e7565b005b60008060008673ffffffffffffffffffffffffffffffffffffffff1663128acb08600088888833604051602001808273ffffffffffffffffffffffffffffffffffffffff1681526020019150506040516020818303038152906040526040518663ffffffff1660e01b8152600401808673ffffffffffffffffffffffffffffffffffffffff16815260200185151581526020018481526020018373ffffffffffffffffffffffffffffffffffffffff16815260200180602001828103825283818151815260200191508051906020019080838360005b8381101561026b578082015181840152602081019050610250565b50505050905090810190601f1680156102985780820380516001836020036101000a031916815260200191505b5096505050505050506040805180830381600087803b1580156102ba57600080fd5b505af11580156102ce573d6000803e3d6000fd5b505050506040513d60408110156102e457600080fd5b81019080805190602001909291908051906020019092919050505080935081945050508673ffffffffffffffffffffffffffffffffffffffff16633850c7bd6040518163ffffffff1660e01b815260040160e06040518083038186803b15801561034d57600080fd5b505afa158015610361573d6000803e3d6000fd5b505050506040513d60e081101561037757600080fd5b8101908080519060200190929190805190602001909291908051906020019092919080519060200190929190805190602001909291908051906020019092919080519060200190929190505050909192939450909192935090919250909150905050809150509450945094915050565b6000828260208110156103f957600080fd5b81019080803573ffffffffffffffffffffffffffffffffffffffff1690602001909291905050509050600085131561057b573373ffffffffffffffffffffffffffffffffffffffff16630dfe16816040518163ffffffff1660e01b815260040160206040518083038186803b15801561047157600080fd5b505afa158015610485573d6000803e3d6000fd5b505050506040513d602081101561049b57600080fd5b810190808051906020019092919050505073ffffffffffffffffffffffffffffffffffffffff166323b872dd8233886040518463ffffffff1660e01b8152600401808473ffffffffffffffffffffffffffffffffffffffff1681526020018373ffffffffffffffffffffffffffffffffffffffff1681526020018281526020019350505050602060405180830381600087803b15801561053a57600080fd5b505af115801561054e573d6000803e3d6000fd5b505050506040513d602081101561056457600080fd5b8101908080519060200190929190505050506106d1565b60008413156106d0573373ffffffffffffffffffffffffffffffffffffffff1663d21220a76040518163ffffffff1660e01b815260040160206040518083038186803b1580156105ca57600080fd5b505afa1580156105de573d6000803e3d6000fd5b505050506040513d60208110156105f457600080fd5b810190808051906020019092919050505073ffffffffffffffffffffffffffffffffffffffff166323b872dd8233876040518463ffffffff1660e01b8152600401808473ffffffffffffffffffffffffffffffffffffffff1681526020018373ffffffffffffffffffffffffffffffffffffffff1681526020018281526020019350505050602060405180830381600087803b15801561069357600080fd5b505af11580156106a7573d6000803e3d6000fd5b505050506040513d60208110156106bd57600080fd5b8101908080519060200190929190505050505b5b505050505056fea2646970667358221220e54b4f7070803b443e343501717cfc988f95f8c4eb4c8a453f6a6961ec6feef964736f6c63430007060033",
  "immutableReferences": {},
  "source": "// SPDX-License-Identifier: UNLICENSED\npragma solidity =0.7.6;\n\nimport '../interfaces/IERC20Minimal.sol';\n\nimport '../interfaces/callback/IUniswapV3SwapCallback.sol';\nimport '../interfaces/IUniswapV3Pool.sol';\n\ncontract UniswapV3PoolSwapTest is IUniswapV3SwapCallback {\n    int256 private _amount0Delta;\n    int256 private _amount1Delta;\n\n    function getSwapResult(\n        address pool,\n        bool zeroForOne,\n        int256 amountSpecified,\n        uint160 sqrtPriceLimitX96\n    )\n        external\n        returns (\n            int256 amount0Delta,\n            int256 amount1Delta,\n            uint160 nextSqrtRatio\n        )\n    {\n        (amount0Delta, amount1Delta) = IUniswapV3Pool(pool).swap(\n            address(0),\n            zeroForOne,\n            amountSpecified,\n            sqrtPriceLimitX96,\n            abi.encode(msg.sender)\n        );\n\n        (nextSqrtRatio, , , , , , ) = IUniswapV3Pool(pool).slot0();\n    }\n\n    function uniswapV3SwapCallback(\n        int256 amount0Delta,\n        int256 amount1Delta,\n        bytes calldata data\n    ) external override {\n        address sender = abi.decode(data, (address));\n\n        if (amount0Delta > 0) {\n            IERC20Minimal(IUniswapV3Pool(msg.sender).token0()).transferFrom(sender, msg.sender, uint256(amount0Delta));\n        } else if (amount1Delta > 0) {\n            IERC20Minimal(IUniswapV3Pool(msg.sender).token1()).transferFrom(sender, msg.sender, uint256(amount1Delta));\n        }\n    }\n}\n",
  "sourcePath": "/Users/admin/Desktop/amm/amm/get_insidefee/contracts/uniswap/test/UniswapV3PoolSwapTest.sol",
  "compiler": {
    "name": "solc",
    "version": "0.7.6+commit.7338295f.Emscripten.clang"
  },
  "schemaVersion": "3.2.2-next.0",
  "updatedAt": "2021-08-03T06:36:35.265Z",
  "devdoc": {
    "kind": "dev",
    "methods": {
      "uniswapV3SwapCallback(int256,int256,bytes)": {
        "details": "In the implementation you must pay the pool tokens owed for the swap. The caller of this method must be checked to be a UniswapV3Pool deployed by the canonical UniswapV3Factory. amount0Delta and amount1Delta can both be 0 if no tokens were swapped.",
        "params": {
          "amount0Delta": "The amount of token0 that was sent (negative) or must be received (positive) by the pool by the end of the swap. If positive, the callback must send that amount of token0 to the pool.",
          "amount1Delta": "The amount of token1 that was sent (negative) or must be received (positive) by the pool by the end of the swap. If positive, the callback must send that amount of token1 to the pool.",
          "data": "Any data passed through by the caller via the IUniswapV3PoolActions#swap call"
        }
      }
    },
    "version": 1
  },
  "userdoc": {
    "kind": "user",
    "methods": {
      "uniswapV3SwapCallback(int256,int256,bytes)": {
        "notice": "Called to `msg.sender` after executing a swap via IUniswapV3Pool#swap."
      }
    },
    "version": 1
  }
}