{
  "contractName": "UnsafeMathEchidnaTest",
  "abi": [
    {
      "inputs": [
        {
          "internalType": "uint256",
          "name": "x",
          "type": "uint256"
        },
        {
          "internalType": "uint256",
          "name": "d",
          "type": "uint256"
        }
      ],
      "name": "checkDivRoundingUp",
      "outputs": [],
      "stateMutability": "pure",
      "type": "function"
    }
  ],
  "bytecode": "0x608060405234801561001057600080fd5b5060ff8061001f6000396000f3fe6080604052348015600f57600080fd5b506004361060285760003560e01c80632724da4e14602d575b600080fd5b606060048036036040811015604157600080fd5b8101908080359060200190929190803590602001909291905050506062565b005b60008111606e57600080fd5b60006078838360b6565b90506000828481608457fe5b04820390506000838581609357fe5b06141560a6576000811460a257fe5b60b0565b6001811460af57fe5b5b50505050565b600080828406118284040190509291505056fea264697066735822122056a95040f1d66b8b13ce99f635ce7d6440662594e78a882d517dd817d3cd868564736f6c63430007060033",
  "immutableReferences": {},
  "source": "// SPDX-License-Identifier: UNLICENSED\npragma solidity =0.7.6;\n\nimport '../libraries/UnsafeMath.sol';\n\ncontract UnsafeMathEchidnaTest {\n    function checkDivRoundingUp(uint256 x, uint256 d) external pure {\n        require(d > 0);\n        uint256 z = UnsafeMath.divRoundingUp(x, d);\n        uint256 diff = z - (x / d);\n        if (x % d == 0) {\n            assert(diff == 0);\n        } else {\n            assert(diff == 1);\n        }\n    }\n}\n",
  "sourcePath": "/Users/admin/Desktop/amm/amm/get_insidefee/contracts/uniswap/test/UnsafeMathEchidnaTest.sol",
  "compiler": {
    "name": "solc",
    "version": "0.7.6+commit.7338295f.Emscripten.clang"
  },
  "schemaVersion": "3.2.2-next.0",
  "updatedAt": "2021-08-03T06:36:35.267Z",
  "devdoc": {
    "kind": "dev",
    "methods": {},
    "version": 1
  },
  "userdoc": {
    "kind": "user",
    "methods": {},
    "version": 1
  }
}